{"src/GPUVault.sol":{"GPUVault":{"abi":[{"inputs":[{"internalType":"address","name":"_paymentToken","type":"address"},{"internalType":"address","name":"_feeRecipient","type":"address"}],"stateMutability":"nonpayable","type":"constructor"},{"inputs":[],"name":"DeadlineExpired","type":"error"},{"inputs":[],"name":"ECDSAInvalidSignature","type":"error"},{"inputs":[{"internalType":"uint256","name":"length","type":"uint256"}],"name":"ECDSAInvalidSignatureLength","type":"error"},{"inputs":[{"internalType":"bytes32","name":"s","type":"bytes32"}],"name":"ECDSAInvalidSignatureS","type":"error"},{"inputs":[],"name":"InsufficientDeposit","type":"error"},{"inputs":[],"name":"InvalidSessionKey","type":"error"},{"inputs":[],"name":"InvalidShortString","type":"error"},{"inputs":[],"name":"InvalidSignature","type":"error"},{"inputs":[{"internalType":"address","name":"owner","type":"address"}],"name":"OwnableInvalidOwner","type":"error"},{"inputs":[{"internalType":"address","name":"account","type":"address"}],"name":"OwnableUnauthorizedAccount","type":"error"},{"inputs":[],"name":"ReentrancyGuardReentrantCall","type":"error"},{"inputs":[],"name":"RentalNotActive","type":"error"},{"inputs":[{"internalType":"address","name":"token","type":"address"}],"name":"SafeERC20FailedOperation","type":"error"},{"inputs":[],"name":"SessionKeyExpired","type":"error"},{"inputs":[],"name":"SpendLimitExceeded","type":"error"},{"inputs":[{"internalType":"string","name":"str","type":"string"}],"name":"StringTooLong","type":"error"},{"inputs":[],"name":"ZeroAmount","type":"error"},{"anonymous":false,"inputs":[{"indexed":true,"internalType":"address","name":"user","type":"address"},{"indexed":false,"internalType":"uint256","name":"amount","type":"uint256"}],"name":"Deposited","type":"event"},{"anonymous":false,"inputs":[],"name":"EIP712DomainChanged","type":"event"},{"anonymous":false,"inputs":[{"indexed":true,"internalType":"address","name":"previousOwner","type":"address"},{"indexed":true,"internalType":"address","name":"newOwner","type":"address"}],"name":"OwnershipTransferred","type":"event"},{"anonymous":false,"inputs":[{"indexed":true,"internalType":"address","name":"from","type":"address"},{"indexed":true,"internalType":"address","name":"to","type":"address"},{"indexed":false,"internalType":"uint256","name":"amount","type":"uint256"},{"indexed":false,"internalType":"string","name":"jobId","type":"string"}],"name":"PaymentProcessed","type":"event"},{"anonymous":false,"inputs":[{"indexed":true,"internalType":"uint256","name":"rentalId","type":"uint256"},{"indexed":false,"internalType":"uint256","name":"totalCost","type":"uint256"},{"indexed":false,"internalType":"uint256","name":"platformFee","type":"uint256"}],"name":"RentalEnded","type":"event"},{"anonymous":false,"inputs":[{"indexed":true,"internalType":"uint256","name":"rentalId","type":"uint256"},{"indexed":true,"internalType":"address","name":"renter","type":"address"},{"indexed":true,"internalType":"address","name":"provider","type":"address"},{"indexed":false,"internalType":"string","name":"jobId","type":"string"},{"indexed":false,"internalType":"uint256","name":"pricePerSecond","type":"uint256"}],"name":"RentalStarted","type":"event"},{"anonymous":false,"inputs":[{"indexed":true,"internalType":"address","name":"mainWallet","type":"address"},{"indexed":true,"internalType":"address","name":"sessionKey","type":"address"},{"indexed":false,"internalType":"uint256","name":"spendLimit","type":"uint256"},{"indexed":false,"internalType":"uint256","name":"expiry","type":"uint256"}],"name":"SessionKeyRegistered","type":"event"},{"anonymous":false,"inputs":[{"indexed":true,"internalType":"address","name":"mainWallet","type":"address"},{"indexed":true,"internalType":"address","name":"sessionKey","type":"address"}],"name":"SessionKeyRevoked","type":"event"},{"anonymous":false,"inputs":[{"indexed":true,"internalType":"address","name":"user","type":"address"},{"indexed":false,"internalType":"uint256","name":"amount","type":"uint256"}],"name":"Withdrawn","type":"event"},{"inputs":[],"name":"DOMAIN_SEPARATOR","outputs":[{"internalType":"bytes32","name":"","type":"bytes32"}],"stateMutability":"view","type":"function"},{"inputs":[],"name":"PAYMENT_TYPEHASH","outputs":[{"internalType":"bytes32","name":"","type":"bytes32"}],"stateMutability":"view","type":"function"},{"inputs":[],"name":"SESSION_KEY_TYPEHASH","outputs":[{"internalType":"bytes32","name":"","type":"bytes32"}],"stateMutability":"view","type":"function"},{"inputs":[{"internalType":"uint256","name":"rentalId","type":"uint256"}],"name":"calculateRentalCost","outputs":[{"internalType":"uint256","name":"","type":"uint256"}],"stateMutability":"view","type":"function"},{"inputs":[{"internalType":"uint256","name":"amount","type":"uint256"}],"name":"deposit","outputs":[],"stateMutability":"nonpayable","type":"function"},{"inputs":[{"internalType":"address","name":"","type":"address"}],"name":"deposits","outputs":[{"internalType":"uint256","name":"","type":"uint256"}],"stateMutability":"view","type":"function"},{"inputs":[],"name":"eip712Domain","outputs":[{"internalType":"bytes1","name":"fields","type":"bytes1"},{"internalType":"string","name":"name","type":"string"},{"internalType":"string","name":"version","type":"string"},{"internalType":"uint256","name":"chainId","type":"uint256"},{"internalType":"address","name":"verifyingContract","type":"address"},{"internalType":"bytes32","name":"salt","type":"bytes32"},{"internalType":"uint256[]","name":"extensions","type":"uint256[]"}],"stateMutability":"view","type":"function"},{"inputs":[{"internalType":"uint256","name":"rentalId","type":"uint256"}],"name":"endRental","outputs":[],"stateMutability":"nonpayable","type":"function"},{"inputs":[],"name":"feeRecipient","outputs":[{"internalType":"address","name":"","type":"address"}],"stateMutability":"view","type":"function"},{"inputs":[{"internalType":"address","name":"user","type":"address"}],"name":"getAvailableBalance","outputs":[{"internalType":"uint256","name":"","type":"uint256"}],"stateMutability":"view","type":"function"},{"inputs":[{"internalType":"uint256","name":"rentalId","type":"uint256"}],"name":"getRental","outputs":[{"components":[{"internalType":"address","name":"renter","type":"address"},{"internalType":"address","name":"provider","type":"address"},{"internalType":"uint256","name":"pricePerSecond","type":"uint256"},{"internalType":"uint256","name":"startTime","type":"uint256"},{"internalType":"bool","name":"isActive","type":"bool"},{"internalType":"string","name":"jobId","type":"string"}],"internalType":"struct GPUVault.Rental","name":"","type":"tuple"}],"stateMutability":"view","type":"function"},{"inputs":[{"internalType":"address","name":"sessionKey","type":"address"}],"name":"getSessionKey","outputs":[{"components":[{"internalType":"address","name":"mainWallet","type":"address"},{"internalType":"uint256","name":"spendLimit","type":"uint256"},{"internalType":"uint256","name":"spentAmount","type":"uint256"},{"internalType":"uint256","name":"expiry","type":"uint256"},{"internalType":"bool","name":"isActive","type":"bool"}],"internalType":"struct GPUVault.SessionKey","name":"","type":"tuple"}],"stateMutability":"view","type":"function"},{"inputs":[{"internalType":"address","name":"user","type":"address"}],"name":"getUserSessionKeys","outputs":[{"internalType":"address[]","name":"","type":"address[]"}],"stateMutability":"view","type":"function"},{"inputs":[{"internalType":"address","name":"","type":"address"}],"name":"nonces","outputs":[{"internalType":"uint256","name":"","type":"uint256"}],"stateMutability":"view","type":"function"},{"inputs":[],"name":"owner","outputs":[{"internalType":"address","name":"","type":"address"}],"stateMutability":"view","type":"function"},{"inputs":[],"name":"paymentToken","outputs":[{"internalType":"contract IERC20","name":"","type":"address"}],"stateMutability":"view","type":"function"},{"inputs":[],"name":"platformFeeBps","outputs":[{"internalType":"uint256","name":"","type":"uint256"}],"stateMutability":"view","type":"function"},{"inputs":[{"internalType":"address","name":"sessionKey","type":"address"},{"internalType":"address","name":"to","type":"address"},{"internalType":"uint256","name":"amount","type":"uint256"},{"internalType":"string","name":"jobId","type":"string"},{"internalType":"uint256","name":"deadline","type":"uint256"},{"internalType":"bytes","name":"signature","type":"bytes"}],"name":"processPaymentWithSessionKey","outputs":[],"stateMutability":"nonpayable","type":"function"},{"inputs":[{"internalType":"address","name":"sessionKey","type":"address"},{"internalType":"uint256","name":"spendLimit","type":"uint256"},{"internalType":"uint256","name":"duration","type":"uint256"}],"name":"registerSessionKey","outputs":[],"stateMutability":"nonpayable","type":"function"},{"inputs":[{"internalType":"address","name":"mainWallet","type":"address"},{"internalType":"address","name":"sessionKey","type":"address"},{"internalType":"uint256","name":"spendLimit","type":"uint256"},{"internalType":"uint256","name":"expiry","type":"uint256"},{"internalType":"bytes","name":"signature","type":"bytes"}],"name":"registerSessionKeyWithSignature","outputs":[],"stateMutability":"nonpayable","type":"function"},{"inputs":[],"name":"renounceOwnership","outputs":[],"stateMutability":"nonpayable","type":"function"},{"inputs":[],"name":"rentalCount","outputs":[{"internalType":"uint256","name":"","type":"uint256"}],"stateMutability":"view","type":"function"},{"inputs":[{"internalType":"uint256","name":"","type":"uint256"}],"name":"rentals","outputs":[{"internalType":"address","name":"renter","type":"address"},{"internalType":"address","name":"provider","type":"address"},{"internalType":"uint256","name":"pricePerSecond","type":"uint256"},{"internalType":"uint256","name":"startTime","type":"uint256"},{"internalType":"bool","name":"isActive","type":"bool"},{"internalType":"string","name":"jobId","type":"string"}],"stateMutability":"view","type":"function"},{"inputs":[{"internalType":"address","name":"sessionKey","type":"address"}],"name":"revokeSessionKey","outputs":[],"stateMutability":"nonpayable","type":"function"},{"inputs":[{"internalType":"address","name":"","type":"address"}],"name":"sessionKeys","outputs":[{"internalType":"address","name":"mainWallet","type":"address"},{"internalType":"uint256","name":"spendLimit","type":"uint256"},{"internalType":"uint256","name":"spentAmount","type":"uint256"},{"internalType":"uint256","name":"expiry","type":"uint256"},{"internalType":"bool","name":"isActive","type":"bool"}],"stateMutability":"view","type":"function"},{"inputs":[{"internalType":"address","name":"newRecipient","type":"address"}],"name":"setFeeRecipient","outputs":[],"stateMutability":"nonpayable","type":"function"},{"inputs":[{"internalType":"uint256","name":"newFeeBps","type":"uint256"}],"name":"setPlatformFee","outputs":[],"stateMutability":"nonpayable","type":"function"},{"inputs":[{"internalType":"address","name":"provider","type":"address"},{"internalType":"uint256","name":"pricePerSecond","type":"uint256"},{"internalType":"string","name":"jobId","type":"string"}],"name":"startRental","outputs":[{"internalType":"uint256","name":"rentalId","type":"uint256"}],"stateMutability":"nonpayable","type":"function"},{"inputs":[{"internalType":"address","name":"sessionKey","type":"address"},{"internalType":"address","name":"provider","type":"address"},{"internalType":"uint256","name":"pricePerSecond","type":"uint256"},{"internalType":"string","name":"jobId","type":"string"}],"name":"startRentalWithSessionKey","outputs":[{"internalType":"uint256","name":"rentalId","type":"uint256"}],"stateMutability":"nonpayable","type":"function"},{"inputs":[{"internalType":"address","name":"newOwner","type":"address"}],"name":"transferOwnership","outputs":[],"stateMutability":"nonpayable","type":"function"},{"inputs":[{"internalType":"address","name":"","type":"address"},{"internalType":"uint256","name":"","type":"uint256"}],"name":"userSessionKeys","outputs":[{"internalType":"address","name":"","type":"address"}],"stateMutability":"view","type":"function"},{"inputs":[{"internalType":"uint256","name":"amount","type":"uint256"}],"name":"withdraw","outputs":[],"stateMutability":"nonpayable","type":"function"}],"evm":{"bytecode":{"linkReferences":{},"object":"6101803462000246576200298e906001600160401b0390601f38849003908101601f1916820190838211838310176200024b5780839160409687948552833981010312620002465762000060602062000058836200027d565b92016200027d565b8351906200006e8262000261565b6008825260208201906711d41555985d5b1d60c21b8252855195620000938762000261565b600187526020870191603160f81b83526000976001895533156200022e57600180546001600160a01b031980821633908117909355956001600160a01b039592909186167f8be0079c531659141344cd1fd0a4f28419497f9722a3daafe3b4186f6b6457e08d80a3620001068862000292565b9661012097885262000118846200046f565b98610140998a52519020928360e052519020906101009a828c524660a05281519260208401947f8b73c3c69bb8fe3d512ecc4cf759cc79239f7b179b0ffacaa9a75d522b39400f86528385015260608401524660808401523060a084015260a0835260c083019a838c10908c11176200021a57508990525190206080523060c0526101f4600a5581610160961686521690600b541617600b55612369948562000625863960805185612182015260a0518561223d015260c0518561214c015260e051856121d1015251846121f701525183611298015251826112c101525181818161079901528181610a4b01528181610c76015281816116e4015261176c0152f35b634e487b7160e01b81526041600452602490fd5b8251631e4fbdf760e01b8152600481018a9052602490fd5b600080fd5b634e487b7160e01b600052604160045260246000fd5b604081019081106001600160401b038211176200024b57604052565b51906001600160a01b03821682036200024657565b8051602090818110156200032f5750601f825111620002ce5780825192015190808310620002bf57501790565b82600019910360031b1b161790565b90604051809263305a27a960e01b82528060048301528251908160248401526000935b82851062000315575050604492506000838284010152601f80199101168101030190fd5b8481018201518686016044015293810193859350620002f1565b906001600160401b0382116200024b57600254926001938481811c9116801562000464575b838210146200044e57601f811162000414575b5081601f8411600114620003a857509282939183926000946200039c575b50501b916000199060031b1c19161760025560ff90565b01519250388062000385565b919083601f198116600260005284600020946000905b88838310620003f95750505010620003df575b505050811b0160025560ff90565b015160001960f88460031b161c19169055388080620003d1565b858701518855909601959485019487935090810190620003be565b600260005284601f84600020920160051c820191601f860160051c015b8281106200044157505062000367565b6000815501859062000431565b634e487b7160e01b600052602260045260246000fd5b90607f169062000354565b80516020919082811015620004ff575090601f8251116200049e5780825192015190808310620002bf57501790565b90604051809263305a27a960e01b82528060048301528251908160248401526000935b828510620004e5575050604492506000838284010152601f80199101168101030190fd5b8481018201518686016044015293810193859350620004c1565b6001600160401b0381116200024b576003928354926001938481811c9116801562000619575b838210146200044e57601f8111620005e0575b5081601f84116001146200057757509282939183926000946200056b575b50501b9160001990841b1c191617905560ff90565b01519250388062000556565b919083601f1981168760005284600020946000905b88838310620005c55750505010620005ac575b505050811b01905560ff90565b015160001983861b60f8161c191690553880806200059f565b8587015188559096019594850194879350908101906200058c565b8560005284601f84600020920160051c820191601f860160051c015b8281106200060c57505062000538565b60008155018590620005fc565b90607f16906200052556fe608080604052600436101561001357600080fd5b60003560e01c9081630a294ab6146119e95750806312e8e2c31461198b5780631fec2a6b146117e157806322dcd13e146117c35780632e1a7d4d146117135780633013ce29146116ce5780633644e515146116b35780633e9f4fa01461168d5780634690484014611664578063652bd29e1461155d5780636c24a76f1461017f5780636d3298cb14611522578063715018a6146114c557806376eb389b1461148a5780637a364461146113c55780637ecebe001461138b57806384b0196e1461128257806384f4fc6a146111dd5780638da5cb5b146111b45780638f62390514610faa5780639723091f14610ce357806397491d6f14610b83578063af94a1d114610ae9578063b25ef1931461081d578063b6b55f2514610743578063b7b8d604146106d5578063c9a087fc1461067c578063cb8ec30f14610379578063e74b981b146102fa578063f06d8ed214610247578063f2fde38b146101be5763fc7e286d1461017f57600080fd5b346101b95760203660031901126101b9576001600160a01b036101a0611a04565b1660005260046020526020604060002054604051908152f35b600080fd5b346101b95760203660031901126101b9576101d7611a04565b6101df611c0d565b6001600160a01b0390811690811561022e57600154826001600160601b0360a01b821617600155167f8be0079c531659141344cd1fd0a4f28419497f9722a3daafe3b4186f6b6457e0600080a3005b604051631e4fbdf760e01b815260006004820152602490fd5b346101b9576020806003193601126101b9576001600160a01b03908161026b611a04565b1660005260068152604060002060405191828183549182815201908193600052826000209060005b8181106102e457505050836102a9910384611bbe565b60405192818401908285525180915260408401929160005b8281106102ce5785850386f35b83518716855293810193928101926001016102c1565b8254881684529284019260019283019201610293565b346101b95760203660031901126101b957610313611a04565b61031b611c0d565b6001600160a01b03168015610342576001600160601b0360a01b600b541617600b55600080f35b60405162461bcd60e51b815260206004820152600f60248201526e496e76616c6964206164647265737360881b6044820152606490fd5b346101b95760803660031901126101b957610392611a04565b61039a611a1a565b6064356001600160401b0381116101b9576103b9903690600401611a70565b909260018060a01b03166000526005602052604060002060ff6004820154161561066a576003810154421161065857546001600160a01b031660008181526004602052604090205461040c901515612263565b6009549261041984611f7d565b6009556040519061042982611b88565b8282526001600160a01b03166020820181905260443560408301524260608301526001608083015292600561045f368389611f8c565b9260a081019384528660005260086020526104de608060406000209260018060a01b038151166001600160601b0360a01b9081865416178555600185019060018060a01b0360208401511690825416179055604081015160028501556060810151600385015501511515600483019060ff801983541691151516179055565b019151918251926001600160401b038411610642576104fd8254611a9d565b601f81116105fa575b50916020979187938990601f8711600114610580579580916000805160206123148339815191529697600092610575575b50508160011b916000199060031b1c19161790555b6105636040519283926040845260408401916122a2565b604435898301520390a4604051908152f35b015190508b80610537565b9590601f19821696836000528b6000209760005b8181106105e05750916000805160206123148339815191529798918460019594106105c7575b505050811b01905561054c565b015160001960f88460031b161c191690558b80806105ba565b838301518a556001909901988c9850928d01928d01610594565b826000526020600020601f860160051c81019160208710610638575b601f0160051c01905b81811061062c5750610506565b6000815560010161061f565b9091508190610616565b634e487b7160e01b600052604160045260246000fd5b604051636d03805160e11b8152600490fd5b604051635f8874dd60e11b8152600490fd5b346101b95760403660031901126101b957610695611a04565b6024359060018060a01b038091166000526006602052604060002080548310156101b9576020926106c591611bdf565b9190546040519260031b1c168152f35b346101b95760203660031901126101b95760a06001600160a01b03806106f9611a04565b16600052600560205260406000209081541690600181015490600281015460ff60046003840154930154169260405194855260208501526040840152606083015215156080820152f35b346101b95760203660031901126101b95760043561075f611e7a565b801561080b576107bd6040516323b872dd60e01b60208201523360248201523060448201528260648201526064815261079781611b6d565b7f0000000000000000000000000000000000000000000000000000000000000000611e12565b33600052600460205260406000206107d6828254611def565b90556040519081527f2da466a7b24304f47e87fa2e1e5a81b9831ce54fec19055ce277ca2f39ba42c460203392a26001600055005b604051631f2a200560e01b8152600490fd5b346101b95760c03660031901126101b957610836611a04565b61083e611a1a565b6064356001600160401b0381116101b95761085d903690600401611a70565b929060a4356001600160401b0381116101b95761087e903690600401611a70565b9390610888611e7a565b6084354211610ad75760018060a01b038416600052600560205260406000209360ff6004860154161561066a5760038501544211610658576108d06044356002870154611def565b600186015410610ac55784546001600160a01b0316956108f1368987611f8c565b602081519101209060018060a01b0383166000526007602052604060002080549061091b82611f7d565b9055604051927f83c16fb5990216990cb35e4d72b8c900905c38a883e269e3d6879809242bc7eb602085015289604085015260018060a01b0387166060850152604435608085015260a084015260c083015260843560e083015260e082526101008201918083106001600160401b03841117610642576109c6946109af6109b7926109bd9560405260208151910120612123565b923691611f8c565b90611fd2565b9093919361209e565b6001600160a01b03908116911603610ab35783600052600460205260443560406000205410610aa1577fb5e51a9058e00792fede50f44125bb8bc3f068a8f877644c8a3b3d02c74f56e0926002610a2260443582840154611def565b9101558360005260046020526040600020610a406044358254611e9d565b9055610a6f604435827f0000000000000000000000000000000000000000000000000000000000000000611eaa565b610a9760405192839260443584526040602085015260018060a01b03169660408401916122a2565b0390a36001600055005b60405163070f6eed60e11b8152600490fd5b604051638baa579f60e01b8152600490fd5b604051639bd0c54560e01b8152600490fd5b604051631ab7da6b60e01b8152600490fd5b346101b95760203660031901126101b9576004356000526008602052604060002060018060a01b03610b7f60058284541692600185015416936002810154600382015490610b5060ff60048501541693610b496040518097819301611ad7565b0385611bbe565b60405196879687526020870152604086015260608501521515608084015260c060a084015260c0830190611a30565b0390f35b346101b95760203660031901126101b957600435610b9f611e7a565b806000526008602052604060002090600482019160ff83541615610cd157610bd9610bce600383015442611e9d565b6002830154906122c3565b9081610bef575b835460ff191684556001600055005b60018060a01b039182825416918260005260046020528160406000205410610aa1577f29bebb989e48bff73fef1a7a123ccba02b57bee185efc942c49eea92d8fd1b8b93604093610c9f92612710610c49600a54876122c3565b04938492610c578488611e9d565b90600052600460205287600020610c6f888254611e9d565b90558460017f00000000000000000000000000000000000000000000000000000000000000009401541683611eaa565b81610cbb575b50505082519182526020820152a2818080610be0565b610cc992600b541690611eaa565b868181610ca5565b60405163f33650bd60e01b8152600490fd5b346101b95760603660031901126101b957610cfc611a04565b602435906001600160401b03906044358281116101b957610d21903690600401611a70565b9390933360005260209460048652610d3f6040600020541515612263565b8215610f75579085916009548096610d5682611f7d565b600955604051610d6581611b88565b3381526001600160a01b03978816868201818152604083018981524260608501908152600160808601818152949c909a919391610da3368c8c611f8c565b9860a08801998a5260005260089052806040600020965116906001600160601b0360a01b91828854161787558b8701925116908254161790555160028401555160038301555115156004820190610e05919060ff801983541691151516179055565b6005019151948551918211610642578895610e208454611a9d565b601f8111610f1b575b508a90601f8411600114610e9c579280610e7e95938193600080516020612314833981519152999896600094610e91575b50501b916000199060031b1c19161790555b604051926040845260408401916122a2565b93878201528033940390a4604051908152f35b015192508e80610e5a565b60008581528c8120939493929190601f198516908e5b828210610f0357505091600080516020612314833981519152989795939185610e7e98969410610eea575b505050811b019055610e6c565b015160001960f88460031b161c191690558c8080610edd565b8484015186558e9b509487019493840193018e610eb2565b9091929380959697506000528a600020601f850160051c8101918c8610610f6b575b90601f8c99989796959493920160051c01905b818110610f5d5750610e29565b600081558b98508301610f50565b9091508190610f3d565b60405162461bcd60e51b815260048101879052600d60248201526c496e76616c696420707269636560981b6044820152606490fd5b346101b95760a03660031901126101b957610fc3611a04565b610fcb611a1a565b6001600160401b0390606435906044356084358481116101b957610ff3903690600401611a70565b93909460018060a01b03948585169761100d891515611efb565b4284111561117d578616968760005260209260078452604060002080549061103482611f7d565b905560405193858501917f9cdedb650f0c832f0f08ec608cecf63cfb0854c9eb90a48cee2b93f48b11e1b783528b60408701528c60608701528860808701528760a087015260c086015260c0855260e085019285841090841117610642576109b78a946109af6110af948e986110b897604052519020612123565b9092919261209e565b1603610ab3576111726040946111617f290e52799b1ac63207e28c21f7f1f387cf8ea9257dde8e363a02e157d8e4c6589760048b8951926110f884611b6d565b8c84528784018a81528b8501906000825260608601928b845260808701946001865260005260058b528d6000209651166001600160601b0360a01b87541617865551600186015551600285015551600384015551151591019060ff801983541691151516179055565b876000526006835285600020611f3d565b8351928352820152a3005b60405162461bcd60e51b815260206004820152600f60248201526e105b1c9958591e48195e1c1a5c9959608a1b6044820152606490fd5b346101b95760003660031901126101b9576001546040516001600160a01b039091168152602090f35b346101b95760203660031901126101b9576001600160a01b03806111ff611a04565b1690816000526005602052604060002090815416330361124c57600401805460ff19169055337f744157ccffbd293a2e8644928cd7d23d650f869b88f72d7bfea8041b76ca6bec600080a3005b60405162461bcd60e51b815260206004820152600e60248201526d139bdd08185d5d1a1bdc9a5e995960921b6044820152606490fd5b346101b95760003660031901126101b9576112bc7f0000000000000000000000000000000000000000000000000000000000000000611c39565b6112e57f0000000000000000000000000000000000000000000000000000000000000000611d35565b6040516020808201928284106001600160401b0385111761064257918161133e8594611330979660405260008452604051978897600f60f81b895260e0858a015260e0890190611a30565b908782036040890152611a30565b91466060870152306080870152600060a087015285830360c0870152519182815201929160005b82811061137457505050500390f35b835185528695509381019392810192600101611365565b346101b95760203660031901126101b9576001600160a01b036113ac611a04565b1660005260076020526020604060002054604051908152f35b346101b95760203660031901126101b95760a06113e0611a04565b600060806040516113f081611b6d565b8281528260208201528260408201528260608201520152600180831b0380911660005260056020526040600020906040519061142b82611b6d565b8254169182825260018101546020830190815260028201549060408401918252608060ff600460038601549560608801968752015416940193151584526040519485525160208501525160408401525160608301525115156080820152f35b346101b95760003660031901126101b95760206040517f9cdedb650f0c832f0f08ec608cecf63cfb0854c9eb90a48cee2b93f48b11e1b78152f35b346101b95760003660031901126101b9576114de611c0d565b600180546001600160a01b031981169091556000906001600160a01b03167f8be0079c531659141344cd1fd0a4f28419497f9722a3daafe3b4186f6b6457e08280a3005b346101b95760003660031901126101b95760206040517f83c16fb5990216990cb35e4d72b8c900905c38a883e269e3d6879809242bc7eb8152f35b346101b9576020806003193601126101b957606060a060405161157f81611b88565b6000815260008482015260006040820152600083820152600060808201520152600435600052600881526040600020610b7f6005604051926115c084611b88565b60018060a01b03948582541685528560018301541681860190815286600284015491604088019283526003850154936060890194855261162260ff6004880154169660808b01971515885261161b604051809a819301611ad7565b0388611bbe565b60a08901968752604051998a99828b525116908901525116604087015251606086015251608085015251151560a08401525160c08084015260e0830190611a30565b346101b95760003660031901126101b957600b546040516001600160a01b039091168152602090f35b346101b95760203660031901126101b95760206116ab6004356122d6565b604051908152f35b346101b95760003660031901126101b95760206116ab612149565b346101b95760003660031901126101b9576040517f00000000000000000000000000000000000000000000000000000000000000006001600160a01b03168152602090f35b346101b95760203660031901126101b95760043561172f611e7a565b801561080b573360005260046020528060406000205410610aa1573360005260046020526040600020611763828254611e9d565b905561179081337f0000000000000000000000000000000000000000000000000000000000000000611eaa565b6040519081527f7084f5476618d8e60b11ef0d7d3f06914655adb8793e28ff7f018d4c76d505d560203392a26001600055005b346101b95760003660031901126101b9576020600a54604051908152f35b346101b95760603660031901126101b9576117fa611a04565b6001600160a01b038181169160243591906044359061181a851515611efb565b83156119465781151580611939575b15611901576118bb61183e6118ce9342611def565b9360046040519161184e83611b6d565b33835260208301888152604084016000815260608501918983526080860193600185528c600052600560205260406000209651166001600160601b0360a01b87541617865551600186015551600285015551600384015551151591019060ff801983541691151516179055565b3360005260066020526040600020611f3d565b60405191825260208201527f290e52799b1ac63207e28c21f7f1f387cf8ea9257dde8e363a02e157d8e4c65860403392a3005b60405162461bcd60e51b815260206004820152601060248201526f24b73b30b634b210323ab930ba34b7b760811b6044820152606490fd5b5062278d00821115611829565b60405162461bcd60e51b815260206004820152601760248201527f5370656e64206c696d6974206d757374206265203e20300000000000000000006044820152606490fd5b346101b95760203660031901126101b9576004356119a7611c0d565b6103e881116119b557600a55005b60405162461bcd60e51b815260206004820152600c60248201526b08ccaca40e8dede40d0d2ced60a31b6044820152606490fd5b346101b95760003660031901126101b9576020906009548152f35b600435906001600160a01b03821682036101b957565b602435906001600160a01b03821682036101b957565b919082519283825260005b848110611a5c575050826000602080949584010152601f8019910116010190565b602081830181015184830182015201611a3b565b9181601f840112156101b9578235916001600160401b0383116101b957602083818601950101116101b957565b90600182811c92168015611acd575b6020831014611ab757565b634e487b7160e01b600052602260045260246000fd5b91607f1691611aac565b9060009291805491611ae883611a9d565b918282526001938481169081600014611b4a5750600114611b0a575b50505050565b90919394506000526020928360002092846000945b838610611b36575050505001019038808080611b04565b805485870183015294019385908201611b1f565b9294505050602093945060ff191683830152151560051b01019038808080611b04565b60a081019081106001600160401b0382111761064257604052565b60c081019081106001600160401b0382111761064257604052565b604081019081106001600160401b0382111761064257604052565b90601f801991011681019081106001600160401b0382111761064257604052565b8054821015611bf75760005260206000200190600090565b634e487b7160e01b600052603260045260246000fd5b6001546001600160a01b03163303611c2157565b60405163118cdaa760e01b8152336004820152602490fd5b60ff8114611c775760ff811690601f8211611c655760405191611c5b83611ba3565b8252602082015290565b604051632cd44ac360e21b8152600490fd5b50604051600254816000611c8a83611a9d565b80835292600190818116908115611d135750600114611cb4575b50611cb192500382611bbe565b90565b6002600090815291507f405787fa12a823e0f2b7631cc41b3ba8828b3321ca811111fa75cd3aa3bb5ace5b848310611cf85750611cb1935050810160200138611ca4565b81935090816020925483858901015201910190918492611cdf565b905060209250611cb194915060ff191682840152151560051b82010138611ca4565b60ff8114611d575760ff811690601f8211611c655760405191611c5b83611ba3565b50604051600354816000611d6a83611a9d565b80835292600190818116908115611d135750600114611d905750611cb192500382611bbe565b6003600090815291507fc2575a0e9e593c00f959f8c92f12db2869c3395a3b0502d05e2516446f71f85b5b848310611dd45750611cb1935050810160200138611ca4565b81935090816020925483858901015201910190918492611dbb565b91908201809211611dfc57565b634e487b7160e01b600052601160045260246000fd5b906000602091828151910182855af115611e6e576000513d611e6557506001600160a01b0381163b155b611e435750565b604051635274afe760e01b81526001600160a01b039091166004820152602490fd5b60011415611e3c565b6040513d6000823e3d90fd5b600260005414611e8b576002600055565b604051633ee5aeb560e01b8152600490fd5b91908203918211611dfc57565b60405163a9059cbb60e01b60208201526001600160a01b03909216602483015260448083019390935291815260808101916001600160401b0383118284101761064257611ef992604052611e12565b565b15611f0257565b60405162461bcd60e51b8152602060048201526013602482015272496e76616c69642073657373696f6e206b657960681b6044820152606490fd5b80546801000000000000000081101561064257611f5f91600182018155611bdf565b819291549060031b9160018060a01b03809116831b921b1916179055565b6000198114611dfc5760010190565b9291926001600160401b0382116106425760405191611fb5601f8201601f191660200184611bbe565b8294818452818301116101b9578281602093846000960137010152565b815191906041830361200357611ffc92506020820151906060604084015193015160001a9061200e565b9192909190565b505060009160029190565b91907f7fffffffffffffffffffffffffffffff5d576e7357a4501ddfe92f46681b20a0841161209257926020929160ff608095604051948552168484015260408301526060820152600092839182805260015afa156120865780516001600160a01b0381161561207d57918190565b50809160019190565b604051903d90823e3d90fd5b50505060009160039190565b600481101561210d57806120b0575050565b600181036120ca5760405163f645eedf60e01b8152600490fd5b600281036120eb5760405163fce698f760e01b815260048101839052602490fd5b6003146120f55750565b602490604051906335e2f38360e21b82526004820152fd5b634e487b7160e01b600052602160045260246000fd5b60429061212e612149565b906040519161190160f01b8352600283015260228201522090565b307f00000000000000000000000000000000000000000000000000000000000000006001600160a01b0316148061223a575b156121a4577f000000000000000000000000000000000000000000000000000000000000000090565b60405160208101907f8b73c3c69bb8fe3d512ecc4cf759cc79239f7b179b0ffacaa9a75d522b39400f82527f000000000000000000000000000000000000000000000000000000000000000060408201527f000000000000000000000000000000000000000000000000000000000000000060608201524660808201523060a082015260a0815261223481611b88565b51902090565b507f0000000000000000000000000000000000000000000000000000000000000000461461217b565b1561226a57565b60405162461bcd60e51b815260206004820152601060248201526f11195c1bdcda5d081c995c5d5a5c995960821b6044820152606490fd5b908060209392818452848401376000828201840152601f01601f1916010190565b81810292918115918404141715611dfc57565b6000526008602052604060002060ff6004820154161561230d578060026123046003611cb194015442611e9d565b910154906122c3565b5060009056fe26959e18775fbd2eabcc8c8ccbe9e125e15a7b55f9c94b72decfcc74ae65ef59a26469706673582212204a6441e776ed2397512a82d9064a9ac348dd012a30ca8b43fac8d2f75073054064736f6c63430008140033","opcodes":"PUSH2 0x180 CALLVALUE PUSH3 0x246 JUMPI PUSH3 0x298E SWAP1 PUSH1 0x1 PUSH1 0x1 PUSH1 0x40 SHL SUB SWAP1 PUSH1 0x1F CODESIZE DUP5 SWAP1 SUB SWAP1 DUP2 ADD PUSH1 0x1F NOT AND DUP3 ADD SWAP1 DUP4 DUP3 GT DUP4 DUP4 LT OR PUSH3 0x24B JUMPI DUP1 DUP4 SWAP2 PUSH1 0x40 SWAP7 DUP8 SWAP5 DUP6 MSTORE DUP4 CODECOPY DUP2 ADD SUB SLT PUSH3 0x246 JUMPI PUSH3 0x60 PUSH1 0x20 PUSH3 0x58 DUP4 PUSH3 0x27D JUMP JUMPDEST SWAP3 ADD PUSH3 0x27D JUMP JUMPDEST DUP4 MLOAD SWAP1 PUSH3 0x6E DUP3 PUSH3 0x261 JUMP JUMPDEST PUSH1 0x8 DUP3 MSTORE PUSH1 0x20 DUP3 ADD SWAP1 PUSH8 0x11D41555985D5B1D PUSH1 0xC2 SHL DUP3 MSTORE DUP6 MLOAD SWAP6 PUSH3 0x93 DUP8 PUSH3 0x261 JUMP JUMPDEST PUSH1 0x1 DUP8 MSTORE PUSH1 0x20 DUP8 ADD SWAP2 PUSH1 0x31 PUSH1 0xF8 SHL DUP4 MSTORE PUSH1 0x0 SWAP8 PUSH1 0x1 DUP10 SSTORE CALLER ISZERO PUSH3 0x22E JUMPI PUSH1 0x1 DUP1 SLOAD PUSH1 0x1 PUSH1 0x1 PUSH1 0xA0 SHL SUB NOT DUP1 DUP3 AND CALLER SWAP1 DUP2 OR SWAP1 SWAP4 SSTORE SWAP6 PUSH1 0x1 PUSH1 0x1 PUSH1 0xA0 SHL SUB SWAP6 SWAP3 SWAP1 SWAP2 DUP7 AND PUSH32 0x8BE0079C531659141344CD1FD0A4F28419497F9722A3DAAFE3B4186F6B6457E0 DUP14 DUP1 LOG3 PUSH3 0x106 DUP9 PUSH3 0x292 JUMP JUMPDEST SWAP7 PUSH2 0x120 SWAP8 DUP9 MSTORE PUSH3 0x118 DUP5 PUSH3 0x46F JUMP JUMPDEST SWAP9 PUSH2 0x140 SWAP10 DUP11 MSTORE MLOAD SWAP1 KECCAK256 SWAP3 DUP4 PUSH1 0xE0 MSTORE MLOAD SWAP1 KECCAK256 SWAP1 PUSH2 0x100 SWAP11 DUP3 DUP13 MSTORE CHAINID PUSH1 0xA0 MSTORE DUP2 MLOAD SWAP3 PUSH1 0x20 DUP5 ADD SWAP5 PUSH32 0x8B73C3C69BB8FE3D512ECC4CF759CC79239F7B179B0FFACAA9A75D522B39400F DUP7 MSTORE DUP4 DUP6 ADD MSTORE PUSH1 0x60 DUP5 ADD MSTORE CHAINID PUSH1 0x80 DUP5 ADD MSTORE ADDRESS PUSH1 0xA0 DUP5 ADD MSTORE PUSH1 0xA0 DUP4 MSTORE PUSH1 0xC0 DUP4 ADD SWAP11 DUP4 DUP13 LT SWAP1 DUP13 GT OR PUSH3 0x21A JUMPI POP DUP10 SWAP1 MSTORE MLOAD SWAP1 KECCAK256 PUSH1 0x80 MSTORE ADDRESS PUSH1 0xC0 MSTORE PUSH2 0x1F4 PUSH1 0xA SSTORE DUP2 PUSH2 0x160 SWAP7 AND DUP7 MSTORE AND SWAP1 PUSH1 0xB SLOAD AND OR PUSH1 0xB SSTORE PUSH2 0x2369 SWAP5 DUP6 PUSH3 0x625 DUP7 CODECOPY PUSH1 0x80 MLOAD DUP6 PUSH2 0x2182 ADD MSTORE PUSH1 0xA0 MLOAD DUP6 PUSH2 0x223D ADD MSTORE PUSH1 0xC0 MLOAD DUP6 PUSH2 0x214C ADD MSTORE PUSH1 0xE0 MLOAD DUP6 PUSH2 0x21D1 ADD MSTORE MLOAD DUP5 PUSH2 0x21F7 ADD MSTORE MLOAD DUP4 PUSH2 0x1298 ADD MSTORE MLOAD DUP3 PUSH2 0x12C1 ADD MSTORE MLOAD DUP2 DUP2 DUP2 PUSH2 0x799 ADD MSTORE DUP2 DUP2 PUSH2 0xA4B ADD MSTORE DUP2 DUP2 PUSH2 0xC76 ADD MSTORE DUP2 DUP2 PUSH2 0x16E4 ADD MSTORE PUSH2 0x176C ADD MSTORE RETURN JUMPDEST PUSH4 0x4E487B71 PUSH1 0xE0 SHL DUP2 MSTORE PUSH1 0x41 PUSH1 0x4 MSTORE PUSH1 0x24 SWAP1 REVERT JUMPDEST DUP3 MLOAD PUSH4 0x1E4FBDF7 PUSH1 0xE0 SHL DUP2 MSTORE PUSH1 0x4 DUP2 ADD DUP11 SWAP1 MSTORE PUSH1 0x24 SWAP1 REVERT JUMPDEST PUSH1 0x0 DUP1 REVERT JUMPDEST PUSH4 0x4E487B71 PUSH1 0xE0 SHL PUSH1 0x0 MSTORE PUSH1 0x41 PUSH1 0x4 MSTORE PUSH1 0x24 PUSH1 0x0 REVERT JUMPDEST PUSH1 0x40 DUP2 ADD SWAP1 DUP2 LT PUSH1 0x1 PUSH1 0x1 PUSH1 0x40 SHL SUB DUP3 GT OR PUSH3 0x24B JUMPI PUSH1 0x40 MSTORE JUMP JUMPDEST MLOAD SWAP1 PUSH1 0x1 PUSH1 0x1 PUSH1 0xA0 SHL SUB DUP3 AND DUP3 SUB PUSH3 0x246 JUMPI JUMP JUMPDEST DUP1 MLOAD PUSH1 0x20 SWAP1 DUP2 DUP2 LT ISZERO PUSH3 0x32F JUMPI POP PUSH1 0x1F DUP3 MLOAD GT PUSH3 0x2CE JUMPI DUP1 DUP3 MLOAD SWAP3 ADD MLOAD SWAP1 DUP1 DUP4 LT PUSH3 0x2BF JUMPI POP OR SWAP1 JUMP JUMPDEST DUP3 PUSH1 0x0 NOT SWAP2 SUB PUSH1 0x3 SHL SHL AND OR SWAP1 JUMP JUMPDEST SWAP1 PUSH1 0x40 MLOAD DUP1 SWAP3 PUSH4 0x305A27A9 PUSH1 0xE0 SHL DUP3 MSTORE DUP1 PUSH1 0x4 DUP4 ADD MSTORE DUP3 MLOAD SWAP1 DUP2 PUSH1 0x24 DUP5 ADD MSTORE PUSH1 0x0 SWAP4 JUMPDEST DUP3 DUP6 LT PUSH3 0x315 JUMPI POP POP PUSH1 0x44 SWAP3 POP PUSH1 0x0 DUP4 DUP3 DUP5 ADD ADD MSTORE PUSH1 0x1F DUP1 NOT SWAP2 ADD AND DUP2 ADD SUB ADD SWAP1 REVERT JUMPDEST DUP5 DUP2 ADD DUP3 ADD MLOAD DUP7 DUP7 ADD PUSH1 0x44 ADD MSTORE SWAP4 DUP2 ADD SWAP4 DUP6 SWAP4 POP PUSH3 0x2F1 JUMP JUMPDEST SWAP1 PUSH1 0x1 PUSH1 0x1 PUSH1 0x40 SHL SUB DUP3 GT PUSH3 0x24B JUMPI PUSH1 0x2 SLOAD SWAP3 PUSH1 0x1 SWAP4 DUP5 DUP2 DUP2 SHR SWAP2 AND DUP1 ISZERO PUSH3 0x464 JUMPI JUMPDEST DUP4 DUP3 LT EQ PUSH3 0x44E JUMPI PUSH1 0x1F DUP2 GT PUSH3 0x414 JUMPI JUMPDEST POP DUP2 PUSH1 0x1F DUP5 GT PUSH1 0x1 EQ PUSH3 0x3A8 JUMPI POP SWAP3 DUP3 SWAP4 SWAP2 DUP4 SWAP3 PUSH1 0x0 SWAP5 PUSH3 0x39C JUMPI JUMPDEST POP POP SHL SWAP2 PUSH1 0x0 NOT SWAP1 PUSH1 0x3 SHL SHR NOT AND OR PUSH1 0x2 SSTORE PUSH1 0xFF SWAP1 JUMP JUMPDEST ADD MLOAD SWAP3 POP CODESIZE DUP1 PUSH3 0x385 JUMP JUMPDEST SWAP2 SWAP1 DUP4 PUSH1 0x1F NOT DUP2 AND PUSH1 0x2 PUSH1 0x0 MSTORE DUP5 PUSH1 0x0 KECCAK256 SWAP5 PUSH1 0x0 SWAP1 JUMPDEST DUP9 DUP4 DUP4 LT PUSH3 0x3F9 JUMPI POP POP POP LT PUSH3 0x3DF JUMPI JUMPDEST POP POP POP DUP2 SHL ADD PUSH1 0x2 SSTORE PUSH1 0xFF SWAP1 JUMP JUMPDEST ADD MLOAD PUSH1 0x0 NOT PUSH1 0xF8 DUP5 PUSH1 0x3 SHL AND SHR NOT AND SWAP1 SSTORE CODESIZE DUP1 DUP1 PUSH3 0x3D1 JUMP JUMPDEST DUP6 DUP8 ADD MLOAD DUP9 SSTORE SWAP1 SWAP7 ADD SWAP6 SWAP5 DUP6 ADD SWAP5 DUP8 SWAP4 POP SWAP1 DUP2 ADD SWAP1 PUSH3 0x3BE JUMP JUMPDEST PUSH1 0x2 PUSH1 0x0 MSTORE DUP5 PUSH1 0x1F DUP5 PUSH1 0x0 KECCAK256 SWAP3 ADD PUSH1 0x5 SHR DUP3 ADD SWAP2 PUSH1 0x1F DUP7 ADD PUSH1 0x5 SHR ADD JUMPDEST DUP3 DUP2 LT PUSH3 0x441 JUMPI POP POP PUSH3 0x367 JUMP JUMPDEST PUSH1 0x0 DUP2 SSTORE ADD DUP6 SWAP1 PUSH3 0x431 JUMP JUMPDEST PUSH4 0x4E487B71 PUSH1 0xE0 SHL PUSH1 0x0 MSTORE PUSH1 0x22 PUSH1 0x4 MSTORE PUSH1 0x24 PUSH1 0x0 REVERT JUMPDEST SWAP1 PUSH1 0x7F AND SWAP1 PUSH3 0x354 JUMP JUMPDEST DUP1 MLOAD PUSH1 0x20 SWAP2 SWAP1 DUP3 DUP2 LT ISZERO PUSH3 0x4FF JUMPI POP SWAP1 PUSH1 0x1F DUP3 MLOAD GT PUSH3 0x49E JUMPI DUP1 DUP3 MLOAD SWAP3 ADD MLOAD SWAP1 DUP1 DUP4 LT PUSH3 0x2BF JUMPI POP OR SWAP1 JUMP JUMPDEST SWAP1 PUSH1 0x40 MLOAD DUP1 SWAP3 PUSH4 0x305A27A9 PUSH1 0xE0 SHL DUP3 MSTORE DUP1 PUSH1 0x4 DUP4 ADD MSTORE DUP3 MLOAD SWAP1 DUP2 PUSH1 0x24 DUP5 ADD MSTORE PUSH1 0x0 SWAP4 JUMPDEST DUP3 DUP6 LT PUSH3 0x4E5 JUMPI POP POP PUSH1 0x44 SWAP3 POP PUSH1 0x0 DUP4 DUP3 DUP5 ADD ADD MSTORE PUSH1 0x1F DUP1 NOT SWAP2 ADD AND DUP2 ADD SUB ADD SWAP1 REVERT JUMPDEST DUP5 DUP2 ADD DUP3 ADD MLOAD DUP7 DUP7 ADD PUSH1 0x44 ADD MSTORE SWAP4 DUP2 ADD SWAP4 DUP6 SWAP4 POP PUSH3 0x4C1 JUMP JUMPDEST PUSH1 0x1 PUSH1 0x1 PUSH1 0x40 SHL SUB DUP2 GT PUSH3 0x24B JUMPI PUSH1 0x3 SWAP3 DUP4 SLOAD SWAP3 PUSH1 0x1 SWAP4 DUP5 DUP2 DUP2 SHR SWAP2 AND DUP1 ISZERO PUSH3 0x619 JUMPI JUMPDEST DUP4 DUP3 LT EQ PUSH3 0x44E JUMPI PUSH1 0x1F DUP2 GT PUSH3 0x5E0 JUMPI JUMPDEST POP DUP2 PUSH1 0x1F DUP5 GT PUSH1 0x1 EQ PUSH3 0x577 JUMPI POP SWAP3 DUP3 SWAP4 SWAP2 DUP4 SWAP3 PUSH1 0x0 SWAP5 PUSH3 0x56B JUMPI JUMPDEST POP POP SHL SWAP2 PUSH1 0x0 NOT SWAP1 DUP5 SHL SHR NOT AND OR SWAP1 SSTORE PUSH1 0xFF SWAP1 JUMP JUMPDEST ADD MLOAD SWAP3 POP CODESIZE DUP1 PUSH3 0x556 JUMP JUMPDEST SWAP2 SWAP1 DUP4 PUSH1 0x1F NOT DUP2 AND DUP8 PUSH1 0x0 MSTORE DUP5 PUSH1 0x0 KECCAK256 SWAP5 PUSH1 0x0 SWAP1 JUMPDEST DUP9 DUP4 DUP4 LT PUSH3 0x5C5 JUMPI POP POP POP LT PUSH3 0x5AC JUMPI JUMPDEST POP POP POP DUP2 SHL ADD SWAP1 SSTORE PUSH1 0xFF SWAP1 JUMP JUMPDEST ADD MLOAD PUSH1 0x0 NOT DUP4 DUP7 SHL PUSH1 0xF8 AND SHR NOT AND SWAP1 SSTORE CODESIZE DUP1 DUP1 PUSH3 0x59F JUMP JUMPDEST DUP6 DUP8 ADD MLOAD DUP9 SSTORE SWAP1 SWAP7 ADD SWAP6 SWAP5 DUP6 ADD SWAP5 DUP8 SWAP4 POP SWAP1 DUP2 ADD SWAP1 PUSH3 0x58C JUMP JUMPDEST DUP6 PUSH1 0x0 MSTORE DUP5 PUSH1 0x1F DUP5 PUSH1 0x0 KECCAK256 SWAP3 ADD PUSH1 0x5 SHR DUP3 ADD SWAP2 PUSH1 0x1F DUP7 ADD PUSH1 0x5 SHR ADD JUMPDEST DUP3 DUP2 LT PUSH3 0x60C JUMPI POP POP PUSH3 0x538 JUMP JUMPDEST PUSH1 0x0 DUP2 SSTORE ADD DUP6 SWAP1 PUSH3 0x5FC JUMP JUMPDEST SWAP1 PUSH1 0x7F AND SWAP1 PUSH3 0x525 JUMP INVALID PUSH1 0x80 DUP1 PUSH1 0x40 MSTORE PUSH1 0x4 CALLDATASIZE LT ISZERO PUSH2 0x13 JUMPI PUSH1 0x0 DUP1 REVERT JUMPDEST PUSH1 0x0 CALLDATALOAD PUSH1 0xE0 SHR SWAP1 DUP2 PUSH4 0xA294AB6 EQ PUSH2 0x19E9 JUMPI POP DUP1 PUSH4 0x12E8E2C3 EQ PUSH2 0x198B JUMPI DUP1 PUSH4 0x1FEC2A6B EQ PUSH2 0x17E1 JUMPI DUP1 PUSH4 0x22DCD13E EQ PUSH2 0x17C3 JUMPI DUP1 PUSH4 0x2E1A7D4D EQ PUSH2 0x1713 JUMPI DUP1 PUSH4 0x3013CE29 EQ PUSH2 0x16CE JUMPI DUP1 PUSH4 0x3644E515 EQ PUSH2 0x16B3 JUMPI DUP1 PUSH4 0x3E9F4FA0 EQ PUSH2 0x168D JUMPI DUP1 PUSH4 0x46904840 EQ PUSH2 0x1664 JUMPI DUP1 PUSH4 0x652BD29E EQ PUSH2 0x155D JUMPI DUP1 PUSH4 0x6C24A76F EQ PUSH2 0x17F JUMPI DUP1 PUSH4 0x6D3298CB EQ PUSH2 0x1522 JUMPI DUP1 PUSH4 0x715018A6 EQ PUSH2 0x14C5 JUMPI DUP1 PUSH4 0x76EB389B EQ PUSH2 0x148A JUMPI DUP1 PUSH4 0x7A364461 EQ PUSH2 0x13C5 JUMPI DUP1 PUSH4 0x7ECEBE00 EQ PUSH2 0x138B JUMPI DUP1 PUSH4 0x84B0196E EQ PUSH2 0x1282 JUMPI DUP1 PUSH4 0x84F4FC6A EQ PUSH2 0x11DD JUMPI DUP1 PUSH4 0x8DA5CB5B EQ PUSH2 0x11B4 JUMPI DUP1 PUSH4 0x8F623905 EQ PUSH2 0xFAA JUMPI DUP1 PUSH4 0x9723091F EQ PUSH2 0xCE3 JUMPI DUP1 PUSH4 0x97491D6F EQ PUSH2 0xB83 JUMPI DUP1 PUSH4 0xAF94A1D1 EQ PUSH2 0xAE9 JUMPI DUP1 PUSH4 0xB25EF193 EQ PUSH2 0x81D JUMPI DUP1 PUSH4 0xB6B55F25 EQ PUSH2 0x743 JUMPI DUP1 PUSH4 0xB7B8D604 EQ PUSH2 0x6D5 JUMPI DUP1 PUSH4 0xC9A087FC EQ PUSH2 0x67C JUMPI DUP1 PUSH4 0xCB8EC30F EQ PUSH2 0x379 JUMPI DUP1 PUSH4 0xE74B981B EQ PUSH2 0x2FA JUMPI DUP1 PUSH4 0xF06D8ED2 EQ PUSH2 0x247 JUMPI DUP1 PUSH4 0xF2FDE38B EQ PUSH2 0x1BE JUMPI PUSH4 0xFC7E286D EQ PUSH2 0x17F JUMPI PUSH1 0x0 DUP1 REVERT JUMPDEST CALLVALUE PUSH2 0x1B9 JUMPI PUSH1 0x20 CALLDATASIZE PUSH1 0x3 NOT ADD SLT PUSH2 0x1B9 JUMPI PUSH1 0x1 PUSH1 0x1 PUSH1 0xA0 SHL SUB PUSH2 0x1A0 PUSH2 0x1A04 JUMP JUMPDEST AND PUSH1 0x0 MSTORE PUSH1 0x4 PUSH1 0x20 MSTORE PUSH1 0x20 PUSH1 0x40 PUSH1 0x0 KECCAK256 SLOAD PUSH1 0x40 MLOAD SWAP1 DUP2 MSTORE RETURN JUMPDEST PUSH1 0x0 DUP1 REVERT JUMPDEST CALLVALUE PUSH2 0x1B9 JUMPI PUSH1 0x20 CALLDATASIZE PUSH1 0x3 NOT ADD SLT PUSH2 0x1B9 JUMPI PUSH2 0x1D7 PUSH2 0x1A04 JUMP JUMPDEST PUSH2 0x1DF PUSH2 0x1C0D JUMP JUMPDEST PUSH1 0x1 PUSH1 0x1 PUSH1 0xA0 SHL SUB SWAP1 DUP2 AND SWAP1 DUP2 ISZERO PUSH2 0x22E JUMPI PUSH1 0x1 SLOAD DUP3 PUSH1 0x1 PUSH1 0x1 PUSH1 0x60 SHL SUB PUSH1 0xA0 SHL DUP3 AND OR PUSH1 0x1 SSTORE AND PUSH32 0x8BE0079C531659141344CD1FD0A4F28419497F9722A3DAAFE3B4186F6B6457E0 PUSH1 0x0 DUP1 LOG3 STOP JUMPDEST PUSH1 0x40 MLOAD PUSH4 0x1E4FBDF7 PUSH1 0xE0 SHL DUP2 MSTORE PUSH1 0x0 PUSH1 0x4 DUP3 ADD MSTORE PUSH1 0x24 SWAP1 REVERT JUMPDEST CALLVALUE PUSH2 0x1B9 JUMPI PUSH1 0x20 DUP1 PUSH1 0x3 NOT CALLDATASIZE ADD SLT PUSH2 0x1B9 JUMPI PUSH1 0x1 PUSH1 0x1 PUSH1 0xA0 SHL SUB SWAP1 DUP2 PUSH2 0x26B PUSH2 0x1A04 JUMP JUMPDEST AND PUSH1 0x0 MSTORE PUSH1 0x6 DUP2 MSTORE PUSH1 0x40 PUSH1 0x0 KECCAK256 PUSH1 0x40 MLOAD SWAP2 DUP3 DUP2 DUP4 SLOAD SWAP2 DUP3 DUP2 MSTORE ADD SWAP1 DUP2 SWAP4 PUSH1 0x0 MSTORE DUP3 PUSH1 0x0 KECCAK256 SWAP1 PUSH1 0x0 JUMPDEST DUP2 DUP2 LT PUSH2 0x2E4 JUMPI POP POP POP DUP4 PUSH2 0x2A9 SWAP2 SUB DUP5 PUSH2 0x1BBE JUMP JUMPDEST PUSH1 0x40 MLOAD SWAP3 DUP2 DUP5 ADD SWAP1 DUP3 DUP6 MSTORE MLOAD DUP1 SWAP2 MSTORE PUSH1 0x40 DUP5 ADD SWAP3 SWAP2 PUSH1 0x0 JUMPDEST DUP3 DUP2 LT PUSH2 0x2CE JUMPI DUP6 DUP6 SUB DUP7 RETURN JUMPDEST DUP4 MLOAD DUP8 AND DUP6 MSTORE SWAP4 DUP2 ADD SWAP4 SWAP3 DUP2 ADD SWAP3 PUSH1 0x1 ADD PUSH2 0x2C1 JUMP JUMPDEST DUP3 SLOAD DUP9 AND DUP5 MSTORE SWAP3 DUP5 ADD SWAP3 PUSH1 0x1 SWAP3 DUP4 ADD SWAP3 ADD PUSH2 0x293 JUMP JUMPDEST CALLVALUE PUSH2 0x1B9 JUMPI PUSH1 0x20 CALLDATASIZE PUSH1 0x3 NOT ADD SLT PUSH2 0x1B9 JUMPI PUSH2 0x313 PUSH2 0x1A04 JUMP JUMPDEST PUSH2 0x31B PUSH2 0x1C0D JUMP JUMPDEST PUSH1 0x1 PUSH1 0x1 PUSH1 0xA0 SHL SUB AND DUP1 ISZERO PUSH2 0x342 JUMPI PUSH1 0x1 PUSH1 0x1 PUSH1 0x60 SHL SUB PUSH1 0xA0 SHL PUSH1 0xB SLOAD AND OR PUSH1 0xB SSTORE PUSH1 0x0 DUP1 RETURN JUMPDEST PUSH1 0x40 MLOAD PUSH3 0x461BCD PUSH1 0xE5 SHL DUP2 MSTORE PUSH1 0x20 PUSH1 0x4 DUP3 ADD MSTORE PUSH1 0xF PUSH1 0x24 DUP3 ADD MSTORE PUSH15 0x496E76616C69642061646472657373 PUSH1 0x88 SHL PUSH1 0x44 DUP3 ADD MSTORE PUSH1 0x64 SWAP1 REVERT JUMPDEST CALLVALUE PUSH2 0x1B9 JUMPI PUSH1 0x80 CALLDATASIZE PUSH1 0x3 NOT ADD SLT PUSH2 0x1B9 JUMPI PUSH2 0x392 PUSH2 0x1A04 JUMP JUMPDEST PUSH2 0x39A PUSH2 0x1A1A JUMP JUMPDEST PUSH1 0x64 CALLDATALOAD PUSH1 0x1 PUSH1 0x1 PUSH1 0x40 SHL SUB DUP2 GT PUSH2 0x1B9 JUMPI PUSH2 0x3B9 SWAP1 CALLDATASIZE SWAP1 PUSH1 0x4 ADD PUSH2 0x1A70 JUMP JUMPDEST SWAP1 SWAP3 PUSH1 0x1 DUP1 PUSH1 0xA0 SHL SUB AND PUSH1 0x0 MSTORE PUSH1 0x5 PUSH1 0x20 MSTORE PUSH1 0x40 PUSH1 0x0 KECCAK256 PUSH1 0xFF PUSH1 0x4 DUP3 ADD SLOAD AND ISZERO PUSH2 0x66A JUMPI PUSH1 0x3 DUP2 ADD SLOAD TIMESTAMP GT PUSH2 0x658 JUMPI SLOAD PUSH1 0x1 PUSH1 0x1 PUSH1 0xA0 SHL SUB AND PUSH1 0x0 DUP2 DUP2 MSTORE PUSH1 0x4 PUSH1 0x20 MSTORE PUSH1 0x40 SWAP1 KECCAK256 SLOAD PUSH2 0x40C SWAP1 ISZERO ISZERO PUSH2 0x2263 JUMP JUMPDEST PUSH1 0x9 SLOAD SWAP3 PUSH2 0x419 DUP5 PUSH2 0x1F7D JUMP JUMPDEST PUSH1 0x9 SSTORE PUSH1 0x40 MLOAD SWAP1 PUSH2 0x429 DUP3 PUSH2 0x1B88 JUMP JUMPDEST DUP3 DUP3 MSTORE PUSH1 0x1 PUSH1 0x1 PUSH1 0xA0 SHL SUB AND PUSH1 0x20 DUP3 ADD DUP2 SWAP1 MSTORE PUSH1 0x44 CALLDATALOAD PUSH1 0x40 DUP4 ADD MSTORE TIMESTAMP PUSH1 0x60 DUP4 ADD MSTORE PUSH1 0x1 PUSH1 0x80 DUP4 ADD MSTORE SWAP3 PUSH1 0x5 PUSH2 0x45F CALLDATASIZE DUP4 DUP10 PUSH2 0x1F8C JUMP JUMPDEST SWAP3 PUSH1 0xA0 DUP2 ADD SWAP4 DUP5 MSTORE DUP7 PUSH1 0x0 MSTORE PUSH1 0x8 PUSH1 0x20 MSTORE PUSH2 0x4DE PUSH1 0x80 PUSH1 0x40 PUSH1 0x0 KECCAK256 SWAP3 PUSH1 0x1 DUP1 PUSH1 0xA0 SHL SUB DUP2 MLOAD AND PUSH1 0x1 PUSH1 0x1 PUSH1 0x60 SHL SUB PUSH1 0xA0 SHL SWAP1 DUP2 DUP7 SLOAD AND OR DUP6 SSTORE PUSH1 0x1 DUP6 ADD SWAP1 PUSH1 0x1 DUP1 PUSH1 0xA0 SHL SUB PUSH1 0x20 DUP5 ADD MLOAD AND SWAP1 DUP3 SLOAD AND OR SWAP1 SSTORE PUSH1 0x40 DUP2 ADD MLOAD PUSH1 0x2 DUP6 ADD SSTORE PUSH1 0x60 DUP2 ADD MLOAD PUSH1 0x3 DUP6 ADD SSTORE ADD MLOAD ISZERO ISZERO PUSH1 0x4 DUP4 ADD SWAP1 PUSH1 0xFF DUP1 NOT DUP4 SLOAD AND SWAP2 ISZERO ISZERO AND OR SWAP1 SSTORE JUMP JUMPDEST ADD SWAP2 MLOAD SWAP2 DUP3 MLOAD SWAP3 PUSH1 0x1 PUSH1 0x1 PUSH1 0x40 SHL SUB DUP5 GT PUSH2 0x642 JUMPI PUSH2 0x4FD DUP3 SLOAD PUSH2 0x1A9D JUMP JUMPDEST PUSH1 0x1F DUP2 GT PUSH2 0x5FA JUMPI JUMPDEST POP SWAP2 PUSH1 0x20 SWAP8 SWAP2 DUP8 SWAP4 DUP10 SWAP1 PUSH1 0x1F DUP8 GT PUSH1 0x1 EQ PUSH2 0x580 JUMPI SWAP6 DUP1 SWAP2 PUSH1 0x0 DUP1 MLOAD PUSH1 0x20 PUSH2 0x2314 DUP4 CODECOPY DUP2 MLOAD SWAP2 MSTORE SWAP7 SWAP8 PUSH1 0x0 SWAP3 PUSH2 0x575 JUMPI JUMPDEST POP POP DUP2 PUSH1 0x1 SHL SWAP2 PUSH1 0x0 NOT SWAP1 PUSH1 0x3 SHL SHR NOT AND OR SWAP1 SSTORE JUMPDEST PUSH2 0x563 PUSH1 0x40 MLOAD SWAP3 DUP4 SWAP3 PUSH1 0x40 DUP5 MSTORE PUSH1 0x40 DUP5 ADD SWAP2 PUSH2 0x22A2 JUMP JUMPDEST PUSH1 0x44 CALLDATALOAD DUP10 DUP4 ADD MSTORE SUB SWAP1 LOG4 PUSH1 0x40 MLOAD SWAP1 DUP2 MSTORE RETURN JUMPDEST ADD MLOAD SWAP1 POP DUP12 DUP1 PUSH2 0x537 JUMP JUMPDEST SWAP6 SWAP1 PUSH1 0x1F NOT DUP3 AND SWAP7 DUP4 PUSH1 0x0 MSTORE DUP12 PUSH1 0x0 KECCAK256 SWAP8 PUSH1 0x0 JUMPDEST DUP2 DUP2 LT PUSH2 0x5E0 JUMPI POP SWAP2 PUSH1 0x0 DUP1 MLOAD PUSH1 0x20 PUSH2 0x2314 DUP4 CODECOPY DUP2 MLOAD SWAP2 MSTORE SWAP8 SWAP9 SWAP2 DUP5 PUSH1 0x1 SWAP6 SWAP5 LT PUSH2 0x5C7 JUMPI JUMPDEST POP POP POP DUP2 SHL ADD SWAP1 SSTORE PUSH2 0x54C JUMP JUMPDEST ADD MLOAD PUSH1 0x0 NOT PUSH1 0xF8 DUP5 PUSH1 0x3 SHL AND SHR NOT AND SWAP1 SSTORE DUP12 DUP1 DUP1 PUSH2 0x5BA JUMP JUMPDEST DUP4 DUP4 ADD MLOAD DUP11 SSTORE PUSH1 0x1 SWAP1 SWAP10 ADD SWAP9 DUP13 SWAP9 POP SWAP3 DUP14 ADD SWAP3 DUP14 ADD PUSH2 0x594 JUMP JUMPDEST DUP3 PUSH1 0x0 MSTORE PUSH1 0x20 PUSH1 0x0 KECCAK256 PUSH1 0x1F DUP7 ADD PUSH1 0x5 SHR DUP2 ADD SWAP2 PUSH1 0x20 DUP8 LT PUSH2 0x638 JUMPI JUMPDEST PUSH1 0x1F ADD PUSH1 0x5 SHR ADD SWAP1 JUMPDEST DUP2 DUP2 LT PUSH2 0x62C JUMPI POP PUSH2 0x506 JUMP JUMPDEST PUSH1 0x0 DUP2 SSTORE PUSH1 0x1 ADD PUSH2 0x61F JUMP JUMPDEST SWAP1 SWAP2 POP DUP2 SWAP1 PUSH2 0x616 JUMP JUMPDEST PUSH4 0x4E487B71 PUSH1 0xE0 SHL PUSH1 0x0 MSTORE PUSH1 0x41 PUSH1 0x4 MSTORE PUSH1 0x24 PUSH1 0x0 REVERT JUMPDEST PUSH1 0x40 MLOAD PUSH4 0x6D038051 PUSH1 0xE1 SHL DUP2 MSTORE PUSH1 0x4 SWAP1 REVERT JUMPDEST PUSH1 0x40 MLOAD PUSH4 0x5F8874DD PUSH1 0xE1 SHL DUP2 MSTORE PUSH1 0x4 SWAP1 REVERT JUMPDEST CALLVALUE PUSH2 0x1B9 JUMPI PUSH1 0x40 CALLDATASIZE PUSH1 0x3 NOT ADD SLT PUSH2 0x1B9 JUMPI PUSH2 0x695 PUSH2 0x1A04 JUMP JUMPDEST PUSH1 0x24 CALLDATALOAD SWAP1 PUSH1 0x1 DUP1 PUSH1 0xA0 SHL SUB DUP1 SWAP2 AND PUSH1 0x0 MSTORE PUSH1 0x6 PUSH1 0x20 MSTORE PUSH1 0x40 PUSH1 0x0 KECCAK256 DUP1 SLOAD DUP4 LT ISZERO PUSH2 0x1B9 JUMPI PUSH1 0x20 SWAP3 PUSH2 0x6C5 SWAP2 PUSH2 0x1BDF JUMP JUMPDEST SWAP2 SWAP1 SLOAD PUSH1 0x40 MLOAD SWAP3 PUSH1 0x3 SHL SHR AND DUP2 MSTORE RETURN JUMPDEST CALLVALUE PUSH2 0x1B9 JUMPI PUSH1 0x20 CALLDATASIZE PUSH1 0x3 NOT ADD SLT PUSH2 0x1B9 JUMPI PUSH1 0xA0 PUSH1 0x1 PUSH1 0x1 PUSH1 0xA0 SHL SUB DUP1 PUSH2 0x6F9 PUSH2 0x1A04 JUMP JUMPDEST AND PUSH1 0x0 MSTORE PUSH1 0x5 PUSH1 0x20 MSTORE PUSH1 0x40 PUSH1 0x0 KECCAK256 SWAP1 DUP2 SLOAD AND SWAP1 PUSH1 0x1 DUP2 ADD SLOAD SWAP1 PUSH1 0x2 DUP2 ADD SLOAD PUSH1 0xFF PUSH1 0x4 PUSH1 0x3 DUP5 ADD SLOAD SWAP4 ADD SLOAD AND SWAP3 PUSH1 0x40 MLOAD SWAP5 DUP6 MSTORE PUSH1 0x20 DUP6 ADD MSTORE PUSH1 0x40 DUP5 ADD MSTORE PUSH1 0x60 DUP4 ADD MSTORE ISZERO ISZERO PUSH1 0x80 DUP3 ADD MSTORE RETURN JUMPDEST CALLVALUE PUSH2 0x1B9 JUMPI PUSH1 0x20 CALLDATASIZE PUSH1 0x3 NOT ADD SLT PUSH2 0x1B9 JUMPI PUSH1 0x4 CALLDATALOAD PUSH2 0x75F PUSH2 0x1E7A JUMP JUMPDEST DUP1 ISZERO PUSH2 0x80B JUMPI PUSH2 0x7BD PUSH1 0x40 MLOAD PUSH4 0x23B872DD PUSH1 0xE0 SHL PUSH1 0x20 DUP3 ADD MSTORE CALLER PUSH1 0x24 DUP3 ADD MSTORE ADDRESS PUSH1 0x44 DUP3 ADD MSTORE DUP3 PUSH1 0x64 DUP3 ADD MSTORE PUSH1 0x64 DUP2 MSTORE PUSH2 0x797 DUP2 PUSH2 0x1B6D JUMP JUMPDEST PUSH32 0x0 PUSH2 0x1E12 JUMP JUMPDEST CALLER PUSH1 0x0 MSTORE PUSH1 0x4 PUSH1 0x20 MSTORE PUSH1 0x40 PUSH1 0x0 KECCAK256 PUSH2 0x7D6 DUP3 DUP3 SLOAD PUSH2 0x1DEF JUMP JUMPDEST SWAP1 SSTORE PUSH1 0x40 MLOAD SWAP1 DUP2 MSTORE PUSH32 0x2DA466A7B24304F47E87FA2E1E5A81B9831CE54FEC19055CE277CA2F39BA42C4 PUSH1 0x20 CALLER SWAP3 LOG2 PUSH1 0x1 PUSH1 0x0 SSTORE STOP JUMPDEST PUSH1 0x40 MLOAD PUSH4 0x1F2A2005 PUSH1 0xE0 SHL DUP2 MSTORE PUSH1 0x4 SWAP1 REVERT JUMPDEST CALLVALUE PUSH2 0x1B9 JUMPI PUSH1 0xC0 CALLDATASIZE PUSH1 0x3 NOT ADD SLT PUSH2 0x1B9 JUMPI PUSH2 0x836 PUSH2 0x1A04 JUMP JUMPDEST PUSH2 0x83E PUSH2 0x1A1A JUMP JUMPDEST PUSH1 0x64 CALLDATALOAD PUSH1 0x1 PUSH1 0x1 PUSH1 0x40 SHL SUB DUP2 GT PUSH2 0x1B9 JUMPI PUSH2 0x85D SWAP1 CALLDATASIZE SWAP1 PUSH1 0x4 ADD PUSH2 0x1A70 JUMP JUMPDEST SWAP3 SWAP1 PUSH1 0xA4 CALLDATALOAD PUSH1 0x1 PUSH1 0x1 PUSH1 0x40 SHL SUB DUP2 GT PUSH2 0x1B9 JUMPI PUSH2 0x87E SWAP1 CALLDATASIZE SWAP1 PUSH1 0x4 ADD PUSH2 0x1A70 JUMP JUMPDEST SWAP4 SWAP1 PUSH2 0x888 PUSH2 0x1E7A JUMP JUMPDEST PUSH1 0x84 CALLDATALOAD TIMESTAMP GT PUSH2 0xAD7 JUMPI PUSH1 0x1 DUP1 PUSH1 0xA0 SHL SUB DUP5 AND PUSH1 0x0 MSTORE PUSH1 0x5 PUSH1 0x20 MSTORE PUSH1 0x40 PUSH1 0x0 KECCAK256 SWAP4 PUSH1 0xFF PUSH1 0x4 DUP7 ADD SLOAD AND ISZERO PUSH2 0x66A JUMPI PUSH1 0x3 DUP6 ADD SLOAD TIMESTAMP GT PUSH2 0x658 JUMPI PUSH2 0x8D0 PUSH1 0x44 CALLDATALOAD PUSH1 0x2 DUP8 ADD SLOAD PUSH2 0x1DEF JUMP JUMPDEST PUSH1 0x1 DUP7 ADD SLOAD LT PUSH2 0xAC5 JUMPI DUP5 SLOAD PUSH1 0x1 PUSH1 0x1 PUSH1 0xA0 SHL SUB AND SWAP6 PUSH2 0x8F1 CALLDATASIZE DUP10 DUP8 PUSH2 0x1F8C JUMP JUMPDEST PUSH1 0x20 DUP2 MLOAD SWAP2 ADD KECCAK256 SWAP1 PUSH1 0x1 DUP1 PUSH1 0xA0 SHL SUB DUP4 AND PUSH1 0x0 MSTORE PUSH1 0x7 PUSH1 0x20 MSTORE PUSH1 0x40 PUSH1 0x0 KECCAK256 DUP1 SLOAD SWAP1 PUSH2 0x91B DUP3 PUSH2 0x1F7D JUMP JUMPDEST SWAP1 SSTORE PUSH1 0x40 MLOAD SWAP3 PUSH32 0x83C16FB5990216990CB35E4D72B8C900905C38A883E269E3D6879809242BC7EB PUSH1 0x20 DUP6 ADD MSTORE DUP10 PUSH1 0x40 DUP6 ADD MSTORE PUSH1 0x1 DUP1 PUSH1 0xA0 SHL SUB DUP8 AND PUSH1 0x60 DUP6 ADD MSTORE PUSH1 0x44 CALLDATALOAD PUSH1 0x80 DUP6 ADD MSTORE PUSH1 0xA0 DUP5 ADD MSTORE PUSH1 0xC0 DUP4 ADD MSTORE PUSH1 0x84 CALLDATALOAD PUSH1 0xE0 DUP4 ADD MSTORE PUSH1 0xE0 DUP3 MSTORE PUSH2 0x100 DUP3 ADD SWAP2 DUP1 DUP4 LT PUSH1 0x1 PUSH1 0x1 PUSH1 0x40 SHL SUB DUP5 GT OR PUSH2 0x642 JUMPI PUSH2 0x9C6 SWAP5 PUSH2 0x9AF PUSH2 0x9B7 SWAP3 PUSH2 0x9BD SWAP6 PUSH1 0x40 MSTORE PUSH1 0x20 DUP2 MLOAD SWAP2 ADD KECCAK256 PUSH2 0x2123 JUMP JUMPDEST SWAP3 CALLDATASIZE SWAP2 PUSH2 0x1F8C JUMP JUMPDEST SWAP1 PUSH2 0x1FD2 JUMP JUMPDEST SWAP1 SWAP4 SWAP2 SWAP4 PUSH2 0x209E JUMP JUMPDEST PUSH1 0x1 PUSH1 0x1 PUSH1 0xA0 SHL SUB SWAP1 DUP2 AND SWAP2 AND SUB PUSH2 0xAB3 JUMPI DUP4 PUSH1 0x0 MSTORE PUSH1 0x4 PUSH1 0x20 MSTORE PUSH1 0x44 CALLDATALOAD PUSH1 0x40 PUSH1 0x0 KECCAK256 SLOAD LT PUSH2 0xAA1 JUMPI PUSH32 0xB5E51A9058E00792FEDE50F44125BB8BC3F068A8F877644C8A3B3D02C74F56E0 SWAP3 PUSH1 0x2 PUSH2 0xA22 PUSH1 0x44 CALLDATALOAD DUP3 DUP5 ADD SLOAD PUSH2 0x1DEF JUMP JUMPDEST SWAP2 ADD SSTORE DUP4 PUSH1 0x0 MSTORE PUSH1 0x4 PUSH1 0x20 MSTORE PUSH1 0x40 PUSH1 0x0 KECCAK256 PUSH2 0xA40 PUSH1 0x44 CALLDATALOAD DUP3 SLOAD PUSH2 0x1E9D JUMP JUMPDEST SWAP1 SSTORE PUSH2 0xA6F PUSH1 0x44 CALLDATALOAD DUP3 PUSH32 0x0 PUSH2 0x1EAA JUMP JUMPDEST PUSH2 0xA97 PUSH1 0x40 MLOAD SWAP3 DUP4 SWAP3 PUSH1 0x44 CALLDATALOAD DUP5 MSTORE PUSH1 0x40 PUSH1 0x20 DUP6 ADD MSTORE PUSH1 0x1 DUP1 PUSH1 0xA0 SHL SUB AND SWAP7 PUSH1 0x40 DUP5 ADD SWAP2 PUSH2 0x22A2 JUMP JUMPDEST SUB SWAP1 LOG3 PUSH1 0x1 PUSH1 0x0 SSTORE STOP JUMPDEST PUSH1 0x40 MLOAD PUSH4 0x70F6EED PUSH1 0xE1 SHL DUP2 MSTORE PUSH1 0x4 SWAP1 REVERT JUMPDEST PUSH1 0x40 MLOAD PUSH4 0x8BAA579F PUSH1 0xE0 SHL DUP2 MSTORE PUSH1 0x4 SWAP1 REVERT JUMPDEST PUSH1 0x40 MLOAD PUSH4 0x9BD0C545 PUSH1 0xE0 SHL DUP2 MSTORE PUSH1 0x4 SWAP1 REVERT JUMPDEST PUSH1 0x40 MLOAD PUSH4 0x1AB7DA6B PUSH1 0xE0 SHL DUP2 MSTORE PUSH1 0x4 SWAP1 REVERT JUMPDEST CALLVALUE PUSH2 0x1B9 JUMPI PUSH1 0x20 CALLDATASIZE PUSH1 0x3 NOT ADD SLT PUSH2 0x1B9 JUMPI PUSH1 0x4 CALLDATALOAD PUSH1 0x0 MSTORE PUSH1 0x8 PUSH1 0x20 MSTORE PUSH1 0x40 PUSH1 0x0 KECCAK256 PUSH1 0x1 DUP1 PUSH1 0xA0 SHL SUB PUSH2 0xB7F PUSH1 0x5 DUP3 DUP5 SLOAD AND SWAP3 PUSH1 0x1 DUP6 ADD SLOAD AND SWAP4 PUSH1 0x2 DUP2 ADD SLOAD PUSH1 0x3 DUP3 ADD SLOAD SWAP1 PUSH2 0xB50 PUSH1 0xFF PUSH1 0x4 DUP6 ADD SLOAD AND SWAP4 PUSH2 0xB49 PUSH1 0x40 MLOAD DUP1 SWAP8 DUP2 SWAP4 ADD PUSH2 0x1AD7 JUMP JUMPDEST SUB DUP6 PUSH2 0x1BBE JUMP JUMPDEST PUSH1 0x40 MLOAD SWAP7 DUP8 SWAP7 DUP8 MSTORE PUSH1 0x20 DUP8 ADD MSTORE PUSH1 0x40 DUP7 ADD MSTORE PUSH1 0x60 DUP6 ADD MSTORE ISZERO ISZERO PUSH1 0x80 DUP5 ADD MSTORE PUSH1 0xC0 PUSH1 0xA0 DUP5 ADD MSTORE PUSH1 0xC0 DUP4 ADD SWAP1 PUSH2 0x1A30 JUMP JUMPDEST SUB SWAP1 RETURN JUMPDEST CALLVALUE PUSH2 0x1B9 JUMPI PUSH1 0x20 CALLDATASIZE PUSH1 0x3 NOT ADD SLT PUSH2 0x1B9 JUMPI PUSH1 0x4 CALLDATALOAD PUSH2 0xB9F PUSH2 0x1E7A JUMP JUMPDEST DUP1 PUSH1 0x0 MSTORE PUSH1 0x8 PUSH1 0x20 MSTORE PUSH1 0x40 PUSH1 0x0 KECCAK256 SWAP1 PUSH1 0x4 DUP3 ADD SWAP2 PUSH1 0xFF DUP4 SLOAD AND ISZERO PUSH2 0xCD1 JUMPI PUSH2 0xBD9 PUSH2 0xBCE PUSH1 0x3 DUP4 ADD SLOAD TIMESTAMP PUSH2 0x1E9D JUMP JUMPDEST PUSH1 0x2 DUP4 ADD SLOAD SWAP1 PUSH2 0x22C3 JUMP JUMPDEST SWAP1 DUP2 PUSH2 0xBEF JUMPI JUMPDEST DUP4 SLOAD PUSH1 0xFF NOT AND DUP5 SSTORE PUSH1 0x1 PUSH1 0x0 SSTORE STOP JUMPDEST PUSH1 0x1 DUP1 PUSH1 0xA0 SHL SUB SWAP2 DUP3 DUP3 SLOAD AND SWAP2 DUP3 PUSH1 0x0 MSTORE PUSH1 0x4 PUSH1 0x20 MSTORE DUP2 PUSH1 0x40 PUSH1 0x0 KECCAK256 SLOAD LT PUSH2 0xAA1 JUMPI PUSH32 0x29BEBB989E48BFF73FEF1A7A123CCBA02B57BEE185EFC942C49EEA92D8FD1B8B SWAP4 PUSH1 0x40 SWAP4 PUSH2 0xC9F SWAP3 PUSH2 0x2710 PUSH2 0xC49 PUSH1 0xA SLOAD DUP8 PUSH2 0x22C3 JUMP JUMPDEST DIV SWAP4 DUP5 SWAP3 PUSH2 0xC57 DUP5 DUP9 PUSH2 0x1E9D JUMP JUMPDEST SWAP1 PUSH1 0x0 MSTORE PUSH1 0x4 PUSH1 0x20 MSTORE DUP8 PUSH1 0x0 KECCAK256 PUSH2 0xC6F DUP9 DUP3 SLOAD PUSH2 0x1E9D JUMP JUMPDEST SWAP1 SSTORE DUP5 PUSH1 0x1 PUSH32 0x0 SWAP5 ADD SLOAD AND DUP4 PUSH2 0x1EAA JUMP JUMPDEST DUP2 PUSH2 0xCBB JUMPI JUMPDEST POP POP POP DUP3 MLOAD SWAP2 DUP3 MSTORE PUSH1 0x20 DUP3 ADD MSTORE LOG2 DUP2 DUP1 DUP1 PUSH2 0xBE0 JUMP JUMPDEST PUSH2 0xCC9 SWAP3 PUSH1 0xB SLOAD AND SWAP1 PUSH2 0x1EAA JUMP JUMPDEST DUP7 DUP2 DUP2 PUSH2 0xCA5 JUMP JUMPDEST PUSH1 0x40 MLOAD PUSH4 0xF33650BD PUSH1 0xE0 SHL DUP2 MSTORE PUSH1 0x4 SWAP1 REVERT JUMPDEST CALLVALUE PUSH2 0x1B9 JUMPI PUSH1 0x60 CALLDATASIZE PUSH1 0x3 NOT ADD SLT PUSH2 0x1B9 JUMPI PUSH2 0xCFC PUSH2 0x1A04 JUMP JUMPDEST PUSH1 0x24 CALLDATALOAD SWAP1 PUSH1 0x1 PUSH1 0x1 PUSH1 0x40 SHL SUB SWAP1 PUSH1 0x44 CALLDATALOAD DUP3 DUP2 GT PUSH2 0x1B9 JUMPI PUSH2 0xD21 SWAP1 CALLDATASIZE SWAP1 PUSH1 0x4 ADD PUSH2 0x1A70 JUMP JUMPDEST SWAP4 SWAP1 SWAP4 CALLER PUSH1 0x0 MSTORE PUSH1 0x20 SWAP5 PUSH1 0x4 DUP7 MSTORE PUSH2 0xD3F PUSH1 0x40 PUSH1 0x0 KECCAK256 SLOAD ISZERO ISZERO PUSH2 0x2263 JUMP JUMPDEST DUP3 ISZERO PUSH2 0xF75 JUMPI SWAP1 DUP6 SWAP2 PUSH1 0x9 SLOAD DUP1 SWAP7 PUSH2 0xD56 DUP3 PUSH2 0x1F7D JUMP JUMPDEST PUSH1 0x9 SSTORE PUSH1 0x40 MLOAD PUSH2 0xD65 DUP2 PUSH2 0x1B88 JUMP JUMPDEST CALLER DUP2 MSTORE PUSH1 0x1 PUSH1 0x1 PUSH1 0xA0 SHL SUB SWAP8 DUP9 AND DUP7 DUP3 ADD DUP2 DUP2 MSTORE PUSH1 0x40 DUP4 ADD DUP10 DUP2 MSTORE TIMESTAMP PUSH1 0x60 DUP6 ADD SWAP1 DUP2 MSTORE PUSH1 0x1 PUSH1 0x80 DUP7 ADD DUP2 DUP2 MSTORE SWAP5 SWAP13 SWAP1 SWAP11 SWAP2 SWAP4 SWAP2 PUSH2 0xDA3 CALLDATASIZE DUP13 DUP13 PUSH2 0x1F8C JUMP JUMPDEST SWAP9 PUSH1 0xA0 DUP9 ADD SWAP10 DUP11 MSTORE PUSH1 0x0 MSTORE PUSH1 0x8 SWAP1 MSTORE DUP1 PUSH1 0x40 PUSH1 0x0 KECCAK256 SWAP7 MLOAD AND SWAP1 PUSH1 0x1 PUSH1 0x1 PUSH1 0x60 SHL SUB PUSH1 0xA0 SHL SWAP2 DUP3 DUP9 SLOAD AND OR DUP8 SSTORE DUP12 DUP8 ADD SWAP3 MLOAD AND SWAP1 DUP3 SLOAD AND OR SWAP1 SSTORE MLOAD PUSH1 0x2 DUP5 ADD SSTORE MLOAD PUSH1 0x3 DUP4 ADD SSTORE MLOAD ISZERO ISZERO PUSH1 0x4 DUP3 ADD SWAP1 PUSH2 0xE05 SWAP2 SWAP1 PUSH1 0xFF DUP1 NOT DUP4 SLOAD AND SWAP2 ISZERO ISZERO AND OR SWAP1 SSTORE JUMP JUMPDEST PUSH1 0x5 ADD SWAP2 MLOAD SWAP5 DUP6 MLOAD SWAP2 DUP3 GT PUSH2 0x642 JUMPI DUP9 SWAP6 PUSH2 0xE20 DUP5 SLOAD PUSH2 0x1A9D JUMP JUMPDEST PUSH1 0x1F DUP2 GT PUSH2 0xF1B JUMPI JUMPDEST POP DUP11 SWAP1 PUSH1 0x1F DUP5 GT PUSH1 0x1 EQ PUSH2 0xE9C JUMPI SWAP3 DUP1 PUSH2 0xE7E SWAP6 SWAP4 DUP2 SWAP4 PUSH1 0x0 DUP1 MLOAD PUSH1 0x20 PUSH2 0x2314 DUP4 CODECOPY DUP2 MLOAD SWAP2 MSTORE SWAP10 SWAP9 SWAP7 PUSH1 0x0 SWAP5 PUSH2 0xE91 JUMPI JUMPDEST POP POP SHL SWAP2 PUSH1 0x0 NOT SWAP1 PUSH1 0x3 SHL SHR NOT AND OR SWAP1 SSTORE JUMPDEST PUSH1 0x40 MLOAD SWAP3 PUSH1 0x40 DUP5 MSTORE PUSH1 0x40 DUP5 ADD SWAP2 PUSH2 0x22A2 JUMP JUMPDEST SWAP4 DUP8 DUP3 ADD MSTORE DUP1 CALLER SWAP5 SUB SWAP1 LOG4 PUSH1 0x40 MLOAD SWAP1 DUP2 MSTORE RETURN JUMPDEST ADD MLOAD SWAP3 POP DUP15 DUP1 PUSH2 0xE5A JUMP JUMPDEST PUSH1 0x0 DUP6 DUP2 MSTORE DUP13 DUP2 KECCAK256 SWAP4 SWAP5 SWAP4 SWAP3 SWAP2 SWAP1 PUSH1 0x1F NOT DUP6 AND SWAP1 DUP15 JUMPDEST DUP3 DUP3 LT PUSH2 0xF03 JUMPI POP POP SWAP2 PUSH1 0x0 DUP1 MLOAD PUSH1 0x20 PUSH2 0x2314 DUP4 CODECOPY DUP2 MLOAD SWAP2 MSTORE SWAP9 SWAP8 SWAP6 SWAP4 SWAP2 DUP6 PUSH2 0xE7E SWAP9 SWAP7 SWAP5 LT PUSH2 0xEEA JUMPI JUMPDEST POP POP POP DUP2 SHL ADD SWAP1 SSTORE PUSH2 0xE6C JUMP JUMPDEST ADD MLOAD PUSH1 0x0 NOT PUSH1 0xF8 DUP5 PUSH1 0x3 SHL AND SHR NOT AND SWAP1 SSTORE DUP13 DUP1 DUP1 PUSH2 0xEDD JUMP JUMPDEST DUP5 DUP5 ADD MLOAD DUP7 SSTORE DUP15 SWAP12 POP SWAP5 DUP8 ADD SWAP5 SWAP4 DUP5 ADD SWAP4 ADD DUP15 PUSH2 0xEB2 JUMP JUMPDEST SWAP1 SWAP2 SWAP3 SWAP4 DUP1 SWAP6 SWAP7 SWAP8 POP PUSH1 0x0 MSTORE DUP11 PUSH1 0x0 KECCAK256 PUSH1 0x1F DUP6 ADD PUSH1 0x5 SHR DUP2 ADD SWAP2 DUP13 DUP7 LT PUSH2 0xF6B JUMPI JUMPDEST SWAP1 PUSH1 0x1F DUP13 SWAP10 SWAP9 SWAP8 SWAP7 SWAP6 SWAP5 SWAP4 SWAP3 ADD PUSH1 0x5 SHR ADD SWAP1 JUMPDEST DUP2 DUP2 LT PUSH2 0xF5D JUMPI POP PUSH2 0xE29 JUMP JUMPDEST PUSH1 0x0 DUP2 SSTORE DUP12 SWAP9 POP DUP4 ADD PUSH2 0xF50 JUMP JUMPDEST SWAP1 SWAP2 POP DUP2 SWAP1 PUSH2 0xF3D JUMP JUMPDEST PUSH1 0x40 MLOAD PUSH3 0x461BCD PUSH1 0xE5 SHL DUP2 MSTORE PUSH1 0x4 DUP2 ADD DUP8 SWAP1 MSTORE PUSH1 0xD PUSH1 0x24 DUP3 ADD MSTORE PUSH13 0x496E76616C6964207072696365 PUSH1 0x98 SHL PUSH1 0x44 DUP3 ADD MSTORE PUSH1 0x64 SWAP1 REVERT JUMPDEST CALLVALUE PUSH2 0x1B9 JUMPI PUSH1 0xA0 CALLDATASIZE PUSH1 0x3 NOT ADD SLT PUSH2 0x1B9 JUMPI PUSH2 0xFC3 PUSH2 0x1A04 JUMP JUMPDEST PUSH2 0xFCB PUSH2 0x1A1A JUMP JUMPDEST PUSH1 0x1 PUSH1 0x1 PUSH1 0x40 SHL SUB SWAP1 PUSH1 0x64 CALLDATALOAD SWAP1 PUSH1 0x44 CALLDATALOAD PUSH1 0x84 CALLDATALOAD DUP5 DUP2 GT PUSH2 0x1B9 JUMPI PUSH2 0xFF3 SWAP1 CALLDATASIZE SWAP1 PUSH1 0x4 ADD PUSH2 0x1A70 JUMP JUMPDEST SWAP4 SWAP1 SWAP5 PUSH1 0x1 DUP1 PUSH1 0xA0 SHL SUB SWAP5 DUP6 DUP6 AND SWAP8 PUSH2 0x100D DUP10 ISZERO ISZERO PUSH2 0x1EFB JUMP JUMPDEST TIMESTAMP DUP5 GT ISZERO PUSH2 0x117D JUMPI DUP7 AND SWAP7 DUP8 PUSH1 0x0 MSTORE PUSH1 0x20 SWAP3 PUSH1 0x7 DUP5 MSTORE PUSH1 0x40 PUSH1 0x0 KECCAK256 DUP1 SLOAD SWAP1 PUSH2 0x1034 DUP3 PUSH2 0x1F7D JUMP JUMPDEST SWAP1 SSTORE PUSH1 0x40 MLOAD SWAP4 DUP6 DUP6 ADD SWAP2 PUSH32 0x9CDEDB650F0C832F0F08EC608CECF63CFB0854C9EB90A48CEE2B93F48B11E1B7 DUP4 MSTORE DUP12 PUSH1 0x40 DUP8 ADD MSTORE DUP13 PUSH1 0x60 DUP8 ADD MSTORE DUP9 PUSH1 0x80 DUP8 ADD MSTORE DUP8 PUSH1 0xA0 DUP8 ADD MSTORE PUSH1 0xC0 DUP7 ADD MSTORE PUSH1 0xC0 DUP6 MSTORE PUSH1 0xE0 DUP6 ADD SWAP3 DUP6 DUP5 LT SWAP1 DUP5 GT OR PUSH2 0x642 JUMPI PUSH2 0x9B7 DUP11 SWAP5 PUSH2 0x9AF PUSH2 0x10AF SWAP5 DUP15 SWAP9 PUSH2 0x10B8 SWAP8 PUSH1 0x40 MSTORE MLOAD SWAP1 KECCAK256 PUSH2 0x2123 JUMP JUMPDEST SWAP1 SWAP3 SWAP2 SWAP3 PUSH2 0x209E JUMP JUMPDEST AND SUB PUSH2 0xAB3 JUMPI PUSH2 0x1172 PUSH1 0x40 SWAP5 PUSH2 0x1161 PUSH32 0x290E52799B1AC63207E28C21F7F1F387CF8EA9257DDE8E363A02E157D8E4C658 SWAP8 PUSH1 0x4 DUP12 DUP10 MLOAD SWAP3 PUSH2 0x10F8 DUP5 PUSH2 0x1B6D JUMP JUMPDEST DUP13 DUP5 MSTORE DUP8 DUP5 ADD DUP11 DUP2 MSTORE DUP12 DUP6 ADD SWAP1 PUSH1 0x0 DUP3 MSTORE PUSH1 0x60 DUP7 ADD SWAP3 DUP12 DUP5 MSTORE PUSH1 0x80 DUP8 ADD SWAP5 PUSH1 0x1 DUP7 MSTORE PUSH1 0x0 MSTORE PUSH1 0x5 DUP12 MSTORE DUP14 PUSH1 0x0 KECCAK256 SWAP7 MLOAD AND PUSH1 0x1 PUSH1 0x1 PUSH1 0x60 SHL SUB PUSH1 0xA0 SHL DUP8 SLOAD AND OR DUP7 SSTORE MLOAD PUSH1 0x1 DUP7 ADD SSTORE MLOAD PUSH1 0x2 DUP6 ADD SSTORE MLOAD PUSH1 0x3 DUP5 ADD SSTORE MLOAD ISZERO ISZERO SWAP2 ADD SWAP1 PUSH1 0xFF DUP1 NOT DUP4 SLOAD AND SWAP2 ISZERO ISZERO AND OR SWAP1 SSTORE JUMP JUMPDEST DUP8 PUSH1 0x0 MSTORE PUSH1 0x6 DUP4 MSTORE DUP6 PUSH1 0x0 KECCAK256 PUSH2 0x1F3D JUMP JUMPDEST DUP4 MLOAD SWAP3 DUP4 MSTORE DUP3 ADD MSTORE LOG3 STOP JUMPDEST PUSH1 0x40 MLOAD PUSH3 0x461BCD PUSH1 0xE5 SHL DUP2 MSTORE PUSH1 0x20 PUSH1 0x4 DUP3 ADD MSTORE PUSH1 0xF PUSH1 0x24 DUP3 ADD MSTORE PUSH15 0x105B1C9958591E48195E1C1A5C9959 PUSH1 0x8A SHL PUSH1 0x44 DUP3 ADD MSTORE PUSH1 0x64 SWAP1 REVERT JUMPDEST CALLVALUE PUSH2 0x1B9 JUMPI PUSH1 0x0 CALLDATASIZE PUSH1 0x3 NOT ADD SLT PUSH2 0x1B9 JUMPI PUSH1 0x1 SLOAD PUSH1 0x40 MLOAD PUSH1 0x1 PUSH1 0x1 PUSH1 0xA0 SHL SUB SWAP1 SWAP2 AND DUP2 MSTORE PUSH1 0x20 SWAP1 RETURN JUMPDEST CALLVALUE PUSH2 0x1B9 JUMPI PUSH1 0x20 CALLDATASIZE PUSH1 0x3 NOT ADD SLT PUSH2 0x1B9 JUMPI PUSH1 0x1 PUSH1 0x1 PUSH1 0xA0 SHL SUB DUP1 PUSH2 0x11FF PUSH2 0x1A04 JUMP JUMPDEST AND SWAP1 DUP2 PUSH1 0x0 MSTORE PUSH1 0x5 PUSH1 0x20 MSTORE PUSH1 0x40 PUSH1 0x0 KECCAK256 SWAP1 DUP2 SLOAD AND CALLER SUB PUSH2 0x124C JUMPI PUSH1 0x4 ADD DUP1 SLOAD PUSH1 0xFF NOT AND SWAP1 SSTORE CALLER PUSH32 0x744157CCFFBD293A2E8644928CD7D23D650F869B88F72D7BFEA8041B76CA6BEC PUSH1 0x0 DUP1 LOG3 STOP JUMPDEST PUSH1 0x40 MLOAD PUSH3 0x461BCD PUSH1 0xE5 SHL DUP2 MSTORE PUSH1 0x20 PUSH1 0x4 DUP3 ADD MSTORE PUSH1 0xE PUSH1 0x24 DUP3 ADD MSTORE PUSH14 0x139BDD08185D5D1A1BDC9A5E9959 PUSH1 0x92 SHL PUSH1 0x44 DUP3 ADD MSTORE PUSH1 0x64 SWAP1 REVERT JUMPDEST CALLVALUE PUSH2 0x1B9 JUMPI PUSH1 0x0 CALLDATASIZE PUSH1 0x3 NOT ADD SLT PUSH2 0x1B9 JUMPI PUSH2 0x12BC PUSH32 0x0 PUSH2 0x1C39 JUMP JUMPDEST PUSH2 0x12E5 PUSH32 0x0 PUSH2 0x1D35 JUMP JUMPDEST PUSH1 0x40 MLOAD PUSH1 0x20 DUP1 DUP3 ADD SWAP3 DUP3 DUP5 LT PUSH1 0x1 PUSH1 0x1 PUSH1 0x40 SHL SUB DUP6 GT OR PUSH2 0x642 JUMPI SWAP2 DUP2 PUSH2 0x133E DUP6 SWAP5 PUSH2 0x1330 SWAP8 SWAP7 PUSH1 0x40 MSTORE PUSH1 0x0 DUP5 MSTORE PUSH1 0x40 MLOAD SWAP8 DUP9 SWAP8 PUSH1 0xF PUSH1 0xF8 SHL DUP10 MSTORE PUSH1 0xE0 DUP6 DUP11 ADD MSTORE PUSH1 0xE0 DUP10 ADD SWAP1 PUSH2 0x1A30 JUMP JUMPDEST SWAP1 DUP8 DUP3 SUB PUSH1 0x40 DUP10 ADD MSTORE PUSH2 0x1A30 JUMP JUMPDEST SWAP2 CHAINID PUSH1 0x60 DUP8 ADD MSTORE ADDRESS PUSH1 0x80 DUP8 ADD MSTORE PUSH1 0x0 PUSH1 0xA0 DUP8 ADD MSTORE DUP6 DUP4 SUB PUSH1 0xC0 DUP8 ADD MSTORE MLOAD SWAP2 DUP3 DUP2 MSTORE ADD SWAP3 SWAP2 PUSH1 0x0 JUMPDEST DUP3 DUP2 LT PUSH2 0x1374 JUMPI POP POP POP POP SUB SWAP1 RETURN JUMPDEST DUP4 MLOAD DUP6 MSTORE DUP7 SWAP6 POP SWAP4 DUP2 ADD SWAP4 SWAP3 DUP2 ADD SWAP3 PUSH1 0x1 ADD PUSH2 0x1365 JUMP JUMPDEST CALLVALUE PUSH2 0x1B9 JUMPI PUSH1 0x20 CALLDATASIZE PUSH1 0x3 NOT ADD SLT PUSH2 0x1B9 JUMPI PUSH1 0x1 PUSH1 0x1 PUSH1 0xA0 SHL SUB PUSH2 0x13AC PUSH2 0x1A04 JUMP JUMPDEST AND PUSH1 0x0 MSTORE PUSH1 0x7 PUSH1 0x20 MSTORE PUSH1 0x20 PUSH1 0x40 PUSH1 0x0 KECCAK256 SLOAD PUSH1 0x40 MLOAD SWAP1 DUP2 MSTORE RETURN JUMPDEST CALLVALUE PUSH2 0x1B9 JUMPI PUSH1 0x20 CALLDATASIZE PUSH1 0x3 NOT ADD SLT PUSH2 0x1B9 JUMPI PUSH1 0xA0 PUSH2 0x13E0 PUSH2 0x1A04 JUMP JUMPDEST PUSH1 0x0 PUSH1 0x80 PUSH1 0x40 MLOAD PUSH2 0x13F0 DUP2 PUSH2 0x1B6D JUMP JUMPDEST DUP3 DUP2 MSTORE DUP3 PUSH1 0x20 DUP3 ADD MSTORE DUP3 PUSH1 0x40 DUP3 ADD MSTORE DUP3 PUSH1 0x60 DUP3 ADD MSTORE ADD MSTORE PUSH1 0x1 DUP1 DUP4 SHL SUB DUP1 SWAP2 AND PUSH1 0x0 MSTORE PUSH1 0x5 PUSH1 0x20 MSTORE PUSH1 0x40 PUSH1 0x0 KECCAK256 SWAP1 PUSH1 0x40 MLOAD SWAP1 PUSH2 0x142B DUP3 PUSH2 0x1B6D JUMP JUMPDEST DUP3 SLOAD AND SWAP2 DUP3 DUP3 MSTORE PUSH1 0x1 DUP2 ADD SLOAD PUSH1 0x20 DUP4 ADD SWAP1 DUP2 MSTORE PUSH1 0x2 DUP3 ADD SLOAD SWAP1 PUSH1 0x40 DUP5 ADD SWAP2 DUP3 MSTORE PUSH1 0x80 PUSH1 0xFF PUSH1 0x4 PUSH1 0x3 DUP7 ADD SLOAD SWAP6 PUSH1 0x60 DUP9 ADD SWAP7 DUP8 MSTORE ADD SLOAD AND SWAP5 ADD SWAP4 ISZERO ISZERO DUP5 MSTORE PUSH1 0x40 MLOAD SWAP5 DUP6 MSTORE MLOAD PUSH1 0x20 DUP6 ADD MSTORE MLOAD PUSH1 0x40 DUP5 ADD MSTORE MLOAD PUSH1 0x60 DUP4 ADD MSTORE MLOAD ISZERO ISZERO PUSH1 0x80 DUP3 ADD MSTORE RETURN JUMPDEST CALLVALUE PUSH2 0x1B9 JUMPI PUSH1 0x0 CALLDATASIZE PUSH1 0x3 NOT ADD SLT PUSH2 0x1B9 JUMPI PUSH1 0x20 PUSH1 0x40 MLOAD PUSH32 0x9CDEDB650F0C832F0F08EC608CECF63CFB0854C9EB90A48CEE2B93F48B11E1B7 DUP2 MSTORE RETURN JUMPDEST CALLVALUE PUSH2 0x1B9 JUMPI PUSH1 0x0 CALLDATASIZE PUSH1 0x3 NOT ADD SLT PUSH2 0x1B9 JUMPI PUSH2 0x14DE PUSH2 0x1C0D JUMP JUMPDEST PUSH1 0x1 DUP1 SLOAD PUSH1 0x1 PUSH1 0x1 PUSH1 0xA0 SHL SUB NOT DUP2 AND SWAP1 SWAP2 SSTORE PUSH1 0x0 SWAP1 PUSH1 0x1 PUSH1 0x1 PUSH1 0xA0 SHL SUB AND PUSH32 0x8BE0079C531659141344CD1FD0A4F28419497F9722A3DAAFE3B4186F6B6457E0 DUP3 DUP1 LOG3 STOP JUMPDEST CALLVALUE PUSH2 0x1B9 JUMPI PUSH1 0x0 CALLDATASIZE PUSH1 0x3 NOT ADD SLT PUSH2 0x1B9 JUMPI PUSH1 0x20 PUSH1 0x40 MLOAD PUSH32 0x83C16FB5990216990CB35E4D72B8C900905C38A883E269E3D6879809242BC7EB DUP2 MSTORE RETURN JUMPDEST CALLVALUE PUSH2 0x1B9 JUMPI PUSH1 0x20 DUP1 PUSH1 0x3 NOT CALLDATASIZE ADD SLT PUSH2 0x1B9 JUMPI PUSH1 0x60 PUSH1 0xA0 PUSH1 0x40 MLOAD PUSH2 0x157F DUP2 PUSH2 0x1B88 JUMP JUMPDEST PUSH1 0x0 DUP2 MSTORE PUSH1 0x0 DUP5 DUP3 ADD MSTORE PUSH1 0x0 PUSH1 0x40 DUP3 ADD MSTORE PUSH1 0x0 DUP4 DUP3 ADD MSTORE PUSH1 0x0 PUSH1 0x80 DUP3 ADD MSTORE ADD MSTORE PUSH1 0x4 CALLDATALOAD PUSH1 0x0 MSTORE PUSH1 0x8 DUP2 MSTORE PUSH1 0x40 PUSH1 0x0 KECCAK256 PUSH2 0xB7F PUSH1 0x5 PUSH1 0x40 MLOAD SWAP3 PUSH2 0x15C0 DUP5 PUSH2 0x1B88 JUMP JUMPDEST PUSH1 0x1 DUP1 PUSH1 0xA0 SHL SUB SWAP5 DUP6 DUP3 SLOAD AND DUP6 MSTORE DUP6 PUSH1 0x1 DUP4 ADD SLOAD AND DUP2 DUP7 ADD SWAP1 DUP2 MSTORE DUP7 PUSH1 0x2 DUP5 ADD SLOAD SWAP2 PUSH1 0x40 DUP9 ADD SWAP3 DUP4 MSTORE PUSH1 0x3 DUP6 ADD SLOAD SWAP4 PUSH1 0x60 DUP10 ADD SWAP5 DUP6 MSTORE PUSH2 0x1622 PUSH1 0xFF PUSH1 0x4 DUP9 ADD SLOAD AND SWAP7 PUSH1 0x80 DUP12 ADD SWAP8 ISZERO ISZERO DUP9 MSTORE PUSH2 0x161B PUSH1 0x40 MLOAD DUP1 SWAP11 DUP2 SWAP4 ADD PUSH2 0x1AD7 JUMP JUMPDEST SUB DUP9 PUSH2 0x1BBE JUMP JUMPDEST PUSH1 0xA0 DUP10 ADD SWAP7 DUP8 MSTORE PUSH1 0x40 MLOAD SWAP10 DUP11 SWAP10 DUP3 DUP12 MSTORE MLOAD AND SWAP1 DUP10 ADD MSTORE MLOAD AND PUSH1 0x40 DUP8 ADD MSTORE MLOAD PUSH1 0x60 DUP7 ADD MSTORE MLOAD PUSH1 0x80 DUP6 ADD MSTORE MLOAD ISZERO ISZERO PUSH1 0xA0 DUP5 ADD MSTORE MLOAD PUSH1 0xC0 DUP1 DUP5 ADD MSTORE PUSH1 0xE0 DUP4 ADD SWAP1 PUSH2 0x1A30 JUMP JUMPDEST CALLVALUE PUSH2 0x1B9 JUMPI PUSH1 0x0 CALLDATASIZE PUSH1 0x3 NOT ADD SLT PUSH2 0x1B9 JUMPI PUSH1 0xB SLOAD PUSH1 0x40 MLOAD PUSH1 0x1 PUSH1 0x1 PUSH1 0xA0 SHL SUB SWAP1 SWAP2 AND DUP2 MSTORE PUSH1 0x20 SWAP1 RETURN JUMPDEST CALLVALUE PUSH2 0x1B9 JUMPI PUSH1 0x20 CALLDATASIZE PUSH1 0x3 NOT ADD SLT PUSH2 0x1B9 JUMPI PUSH1 0x20 PUSH2 0x16AB PUSH1 0x4 CALLDATALOAD PUSH2 0x22D6 JUMP JUMPDEST PUSH1 0x40 MLOAD SWAP1 DUP2 MSTORE RETURN JUMPDEST CALLVALUE PUSH2 0x1B9 JUMPI PUSH1 0x0 CALLDATASIZE PUSH1 0x3 NOT ADD SLT PUSH2 0x1B9 JUMPI PUSH1 0x20 PUSH2 0x16AB PUSH2 0x2149 JUMP JUMPDEST CALLVALUE PUSH2 0x1B9 JUMPI PUSH1 0x0 CALLDATASIZE PUSH1 0x3 NOT ADD SLT PUSH2 0x1B9 JUMPI PUSH1 0x40 MLOAD PUSH32 0x0 PUSH1 0x1 PUSH1 0x1 PUSH1 0xA0 SHL SUB AND DUP2 MSTORE PUSH1 0x20 SWAP1 RETURN JUMPDEST CALLVALUE PUSH2 0x1B9 JUMPI PUSH1 0x20 CALLDATASIZE PUSH1 0x3 NOT ADD SLT PUSH2 0x1B9 JUMPI PUSH1 0x4 CALLDATALOAD PUSH2 0x172F PUSH2 0x1E7A JUMP JUMPDEST DUP1 ISZERO PUSH2 0x80B JUMPI CALLER PUSH1 0x0 MSTORE PUSH1 0x4 PUSH1 0x20 MSTORE DUP1 PUSH1 0x40 PUSH1 0x0 KECCAK256 SLOAD LT PUSH2 0xAA1 JUMPI CALLER PUSH1 0x0 MSTORE PUSH1 0x4 PUSH1 0x20 MSTORE PUSH1 0x40 PUSH1 0x0 KECCAK256 PUSH2 0x1763 DUP3 DUP3 SLOAD PUSH2 0x1E9D JUMP JUMPDEST SWAP1 SSTORE PUSH2 0x1790 DUP2 CALLER PUSH32 0x0 PUSH2 0x1EAA JUMP JUMPDEST PUSH1 0x40 MLOAD SWAP1 DUP2 MSTORE PUSH32 0x7084F5476618D8E60B11EF0D7D3F06914655ADB8793E28FF7F018D4C76D505D5 PUSH1 0x20 CALLER SWAP3 LOG2 PUSH1 0x1 PUSH1 0x0 SSTORE STOP JUMPDEST CALLVALUE PUSH2 0x1B9 JUMPI PUSH1 0x0 CALLDATASIZE PUSH1 0x3 NOT ADD SLT PUSH2 0x1B9 JUMPI PUSH1 0x20 PUSH1 0xA SLOAD PUSH1 0x40 MLOAD SWAP1 DUP2 MSTORE RETURN JUMPDEST CALLVALUE PUSH2 0x1B9 JUMPI PUSH1 0x60 CALLDATASIZE PUSH1 0x3 NOT ADD SLT PUSH2 0x1B9 JUMPI PUSH2 0x17FA PUSH2 0x1A04 JUMP JUMPDEST PUSH1 0x1 PUSH1 0x1 PUSH1 0xA0 SHL SUB DUP2 DUP2 AND SWAP2 PUSH1 0x24 CALLDATALOAD SWAP2 SWAP1 PUSH1 0x44 CALLDATALOAD SWAP1 PUSH2 0x181A DUP6 ISZERO ISZERO PUSH2 0x1EFB JUMP JUMPDEST DUP4 ISZERO PUSH2 0x1946 JUMPI DUP2 ISZERO ISZERO DUP1 PUSH2 0x1939 JUMPI JUMPDEST ISZERO PUSH2 0x1901 JUMPI PUSH2 0x18BB PUSH2 0x183E PUSH2 0x18CE SWAP4 TIMESTAMP PUSH2 0x1DEF JUMP JUMPDEST SWAP4 PUSH1 0x4 PUSH1 0x40 MLOAD SWAP2 PUSH2 0x184E DUP4 PUSH2 0x1B6D JUMP JUMPDEST CALLER DUP4 MSTORE PUSH1 0x20 DUP4 ADD DUP9 DUP2 MSTORE PUSH1 0x40 DUP5 ADD PUSH1 0x0 DUP2 MSTORE PUSH1 0x60 DUP6 ADD SWAP2 DUP10 DUP4 MSTORE PUSH1 0x80 DUP7 ADD SWAP4 PUSH1 0x1 DUP6 MSTORE DUP13 PUSH1 0x0 MSTORE PUSH1 0x5 PUSH1 0x20 MSTORE PUSH1 0x40 PUSH1 0x0 KECCAK256 SWAP7 MLOAD AND PUSH1 0x1 PUSH1 0x1 PUSH1 0x60 SHL SUB PUSH1 0xA0 SHL DUP8 SLOAD AND OR DUP7 SSTORE MLOAD PUSH1 0x1 DUP7 ADD SSTORE MLOAD PUSH1 0x2 DUP6 ADD SSTORE MLOAD PUSH1 0x3 DUP5 ADD SSTORE MLOAD ISZERO ISZERO SWAP2 ADD SWAP1 PUSH1 0xFF DUP1 NOT DUP4 SLOAD AND SWAP2 ISZERO ISZERO AND OR SWAP1 SSTORE JUMP JUMPDEST CALLER PUSH1 0x0 MSTORE PUSH1 0x6 PUSH1 0x20 MSTORE PUSH1 0x40 PUSH1 0x0 KECCAK256 PUSH2 0x1F3D JUMP JUMPDEST PUSH1 0x40 MLOAD SWAP2 DUP3 MSTORE PUSH1 0x20 DUP3 ADD MSTORE PUSH32 0x290E52799B1AC63207E28C21F7F1F387CF8EA9257DDE8E363A02E157D8E4C658 PUSH1 0x40 CALLER SWAP3 LOG3 STOP JUMPDEST PUSH1 0x40 MLOAD PUSH3 0x461BCD PUSH1 0xE5 SHL DUP2 MSTORE PUSH1 0x20 PUSH1 0x4 DUP3 ADD MSTORE PUSH1 0x10 PUSH1 0x24 DUP3 ADD MSTORE PUSH16 0x24B73B30B634B210323AB930BA34B7B7 PUSH1 0x81 SHL PUSH1 0x44 DUP3 ADD MSTORE PUSH1 0x64 SWAP1 REVERT JUMPDEST POP PUSH3 0x278D00 DUP3 GT ISZERO PUSH2 0x1829 JUMP JUMPDEST PUSH1 0x40 MLOAD PUSH3 0x461BCD PUSH1 0xE5 SHL DUP2 MSTORE PUSH1 0x20 PUSH1 0x4 DUP3 ADD MSTORE PUSH1 0x17 PUSH1 0x24 DUP3 ADD MSTORE PUSH32 0x5370656E64206C696D6974206D757374206265203E2030000000000000000000 PUSH1 0x44 DUP3 ADD MSTORE PUSH1 0x64 SWAP1 REVERT JUMPDEST CALLVALUE PUSH2 0x1B9 JUMPI PUSH1 0x20 CALLDATASIZE PUSH1 0x3 NOT ADD SLT PUSH2 0x1B9 JUMPI PUSH1 0x4 CALLDATALOAD PUSH2 0x19A7 PUSH2 0x1C0D JUMP JUMPDEST PUSH2 0x3E8 DUP2 GT PUSH2 0x19B5 JUMPI PUSH1 0xA SSTORE STOP JUMPDEST PUSH1 0x40 MLOAD PUSH3 0x461BCD PUSH1 0xE5 SHL DUP2 MSTORE PUSH1 0x20 PUSH1 0x4 DUP3 ADD MSTORE PUSH1 0xC PUSH1 0x24 DUP3 ADD MSTORE PUSH12 0x8CCACA40E8DEDE40D0D2CED PUSH1 0xA3 SHL PUSH1 0x44 DUP3 ADD MSTORE PUSH1 0x64 SWAP1 REVERT JUMPDEST CALLVALUE PUSH2 0x1B9 JUMPI PUSH1 0x0 CALLDATASIZE PUSH1 0x3 NOT ADD SLT PUSH2 0x1B9 JUMPI PUSH1 0x20 SWAP1 PUSH1 0x9 SLOAD DUP2 MSTORE RETURN JUMPDEST PUSH1 0x4 CALLDATALOAD SWAP1 PUSH1 0x1 PUSH1 0x1 PUSH1 0xA0 SHL SUB DUP3 AND DUP3 SUB PUSH2 0x1B9 JUMPI JUMP JUMPDEST PUSH1 0x24 CALLDATALOAD SWAP1 PUSH1 0x1 PUSH1 0x1 PUSH1 0xA0 SHL SUB DUP3 AND DUP3 SUB PUSH2 0x1B9 JUMPI JUMP JUMPDEST SWAP2 SWAP1 DUP3 MLOAD SWAP3 DUP4 DUP3 MSTORE PUSH1 0x0 JUMPDEST DUP5 DUP2 LT PUSH2 0x1A5C JUMPI POP POP DUP3 PUSH1 0x0 PUSH1 0x20 DUP1 SWAP5 SWAP6 DUP5 ADD ADD MSTORE PUSH1 0x1F DUP1 NOT SWAP2 ADD AND ADD ADD SWAP1 JUMP JUMPDEST PUSH1 0x20 DUP2 DUP4 ADD DUP2 ADD MLOAD DUP5 DUP4 ADD DUP3 ADD MSTORE ADD PUSH2 0x1A3B JUMP JUMPDEST SWAP2 DUP2 PUSH1 0x1F DUP5 ADD SLT ISZERO PUSH2 0x1B9 JUMPI DUP3 CALLDATALOAD SWAP2 PUSH1 0x1 PUSH1 0x1 PUSH1 0x40 SHL SUB DUP4 GT PUSH2 0x1B9 JUMPI PUSH1 0x20 DUP4 DUP2 DUP7 ADD SWAP6 ADD ADD GT PUSH2 0x1B9 JUMPI JUMP JUMPDEST SWAP1 PUSH1 0x1 DUP3 DUP2 SHR SWAP3 AND DUP1 ISZERO PUSH2 0x1ACD JUMPI JUMPDEST PUSH1 0x20 DUP4 LT EQ PUSH2 0x1AB7 JUMPI JUMP JUMPDEST PUSH4 0x4E487B71 PUSH1 0xE0 SHL PUSH1 0x0 MSTORE PUSH1 0x22 PUSH1 0x4 MSTORE PUSH1 0x24 PUSH1 0x0 REVERT JUMPDEST SWAP2 PUSH1 0x7F AND SWAP2 PUSH2 0x1AAC JUMP JUMPDEST SWAP1 PUSH1 0x0 SWAP3 SWAP2 DUP1 SLOAD SWAP2 PUSH2 0x1AE8 DUP4 PUSH2 0x1A9D JUMP JUMPDEST SWAP2 DUP3 DUP3 MSTORE PUSH1 0x1 SWAP4 DUP5 DUP2 AND SWAP1 DUP2 PUSH1 0x0 EQ PUSH2 0x1B4A JUMPI POP PUSH1 0x1 EQ PUSH2 0x1B0A JUMPI JUMPDEST POP POP POP POP JUMP JUMPDEST SWAP1 SWAP2 SWAP4 SWAP5 POP PUSH1 0x0 MSTORE PUSH1 0x20 SWAP3 DUP4 PUSH1 0x0 KECCAK256 SWAP3 DUP5 PUSH1 0x0 SWAP5 JUMPDEST DUP4 DUP7 LT PUSH2 0x1B36 JUMPI POP POP POP POP ADD ADD SWAP1 CODESIZE DUP1 DUP1 DUP1 PUSH2 0x1B04 JUMP JUMPDEST DUP1 SLOAD DUP6 DUP8 ADD DUP4 ADD MSTORE SWAP5 ADD SWAP4 DUP6 SWAP1 DUP3 ADD PUSH2 0x1B1F JUMP JUMPDEST SWAP3 SWAP5 POP POP POP PUSH1 0x20 SWAP4 SWAP5 POP PUSH1 0xFF NOT AND DUP4 DUP4 ADD MSTORE ISZERO ISZERO PUSH1 0x5 SHL ADD ADD SWAP1 CODESIZE DUP1 DUP1 DUP1 PUSH2 0x1B04 JUMP JUMPDEST PUSH1 0xA0 DUP2 ADD SWAP1 DUP2 LT PUSH1 0x1 PUSH1 0x1 PUSH1 0x40 SHL SUB DUP3 GT OR PUSH2 0x642 JUMPI PUSH1 0x40 MSTORE JUMP JUMPDEST PUSH1 0xC0 DUP2 ADD SWAP1 DUP2 LT PUSH1 0x1 PUSH1 0x1 PUSH1 0x40 SHL SUB DUP3 GT OR PUSH2 0x642 JUMPI PUSH1 0x40 MSTORE JUMP JUMPDEST PUSH1 0x40 DUP2 ADD SWAP1 DUP2 LT PUSH1 0x1 PUSH1 0x1 PUSH1 0x40 SHL SUB DUP3 GT OR PUSH2 0x642 JUMPI PUSH1 0x40 MSTORE JUMP JUMPDEST SWAP1 PUSH1 0x1F DUP1 NOT SWAP2 ADD AND DUP2 ADD SWAP1 DUP2 LT PUSH1 0x1 PUSH1 0x1 PUSH1 0x40 SHL SUB DUP3 GT OR PUSH2 0x642 JUMPI PUSH1 0x40 MSTORE JUMP JUMPDEST DUP1 SLOAD DUP3 LT ISZERO PUSH2 0x1BF7 JUMPI PUSH1 0x0 MSTORE PUSH1 0x20 PUSH1 0x0 KECCAK256 ADD SWAP1 PUSH1 0x0 SWAP1 JUMP JUMPDEST PUSH4 0x4E487B71 PUSH1 0xE0 SHL PUSH1 0x0 MSTORE PUSH1 0x32 PUSH1 0x4 MSTORE PUSH1 0x24 PUSH1 0x0 REVERT JUMPDEST PUSH1 0x1 SLOAD PUSH1 0x1 PUSH1 0x1 PUSH1 0xA0 SHL SUB AND CALLER SUB PUSH2 0x1C21 JUMPI JUMP JUMPDEST PUSH1 0x40 MLOAD PUSH4 0x118CDAA7 PUSH1 0xE0 SHL DUP2 MSTORE CALLER PUSH1 0x4 DUP3 ADD MSTORE PUSH1 0x24 SWAP1 REVERT JUMPDEST PUSH1 0xFF DUP2 EQ PUSH2 0x1C77 JUMPI PUSH1 0xFF DUP2 AND SWAP1 PUSH1 0x1F DUP3 GT PUSH2 0x1C65 JUMPI PUSH1 0x40 MLOAD SWAP2 PUSH2 0x1C5B DUP4 PUSH2 0x1BA3 JUMP JUMPDEST DUP3 MSTORE PUSH1 0x20 DUP3 ADD MSTORE SWAP1 JUMP JUMPDEST PUSH1 0x40 MLOAD PUSH4 0x2CD44AC3 PUSH1 0xE2 SHL DUP2 MSTORE PUSH1 0x4 SWAP1 REVERT JUMPDEST POP PUSH1 0x40 MLOAD PUSH1 0x2 SLOAD DUP2 PUSH1 0x0 PUSH2 0x1C8A DUP4 PUSH2 0x1A9D JUMP JUMPDEST DUP1 DUP4 MSTORE SWAP3 PUSH1 0x1 SWAP1 DUP2 DUP2 AND SWAP1 DUP2 ISZERO PUSH2 0x1D13 JUMPI POP PUSH1 0x1 EQ PUSH2 0x1CB4 JUMPI JUMPDEST POP PUSH2 0x1CB1 SWAP3 POP SUB DUP3 PUSH2 0x1BBE JUMP JUMPDEST SWAP1 JUMP JUMPDEST PUSH1 0x2 PUSH1 0x0 SWAP1 DUP2 MSTORE SWAP2 POP PUSH32 0x405787FA12A823E0F2B7631CC41B3BA8828B3321CA811111FA75CD3AA3BB5ACE JUMPDEST DUP5 DUP4 LT PUSH2 0x1CF8 JUMPI POP PUSH2 0x1CB1 SWAP4 POP POP DUP2 ADD PUSH1 0x20 ADD CODESIZE PUSH2 0x1CA4 JUMP JUMPDEST DUP2 SWAP4 POP SWAP1 DUP2 PUSH1 0x20 SWAP3 SLOAD DUP4 DUP6 DUP10 ADD ADD MSTORE ADD SWAP2 ADD SWAP1 SWAP2 DUP5 SWAP3 PUSH2 0x1CDF JUMP JUMPDEST SWAP1 POP PUSH1 0x20 SWAP3 POP PUSH2 0x1CB1 SWAP5 SWAP2 POP PUSH1 0xFF NOT AND DUP3 DUP5 ADD MSTORE ISZERO ISZERO PUSH1 0x5 SHL DUP3 ADD ADD CODESIZE PUSH2 0x1CA4 JUMP JUMPDEST PUSH1 0xFF DUP2 EQ PUSH2 0x1D57 JUMPI PUSH1 0xFF DUP2 AND SWAP1 PUSH1 0x1F DUP3 GT PUSH2 0x1C65 JUMPI PUSH1 0x40 MLOAD SWAP2 PUSH2 0x1C5B DUP4 PUSH2 0x1BA3 JUMP JUMPDEST POP PUSH1 0x40 MLOAD PUSH1 0x3 SLOAD DUP2 PUSH1 0x0 PUSH2 0x1D6A DUP4 PUSH2 0x1A9D JUMP JUMPDEST DUP1 DUP4 MSTORE SWAP3 PUSH1 0x1 SWAP1 DUP2 DUP2 AND SWAP1 DUP2 ISZERO PUSH2 0x1D13 JUMPI POP PUSH1 0x1 EQ PUSH2 0x1D90 JUMPI POP PUSH2 0x1CB1 SWAP3 POP SUB DUP3 PUSH2 0x1BBE JUMP JUMPDEST PUSH1 0x3 PUSH1 0x0 SWAP1 DUP2 MSTORE SWAP2 POP PUSH32 0xC2575A0E9E593C00F959F8C92F12DB2869C3395A3B0502D05E2516446F71F85B JUMPDEST DUP5 DUP4 LT PUSH2 0x1DD4 JUMPI POP PUSH2 0x1CB1 SWAP4 POP POP DUP2 ADD PUSH1 0x20 ADD CODESIZE PUSH2 0x1CA4 JUMP JUMPDEST DUP2 SWAP4 POP SWAP1 DUP2 PUSH1 0x20 SWAP3 SLOAD DUP4 DUP6 DUP10 ADD ADD MSTORE ADD SWAP2 ADD SWAP1 SWAP2 DUP5 SWAP3 PUSH2 0x1DBB JUMP JUMPDEST SWAP2 SWAP1 DUP3 ADD DUP1 SWAP3 GT PUSH2 0x1DFC JUMPI JUMP JUMPDEST PUSH4 0x4E487B71 PUSH1 0xE0 SHL PUSH1 0x0 MSTORE PUSH1 0x11 PUSH1 0x4 MSTORE PUSH1 0x24 PUSH1 0x0 REVERT JUMPDEST SWAP1 PUSH1 0x0 PUSH1 0x20 SWAP2 DUP3 DUP2 MLOAD SWAP2 ADD DUP3 DUP6 GAS CALL ISZERO PUSH2 0x1E6E JUMPI PUSH1 0x0 MLOAD RETURNDATASIZE PUSH2 0x1E65 JUMPI POP PUSH1 0x1 PUSH1 0x1 PUSH1 0xA0 SHL SUB DUP2 AND EXTCODESIZE ISZERO JUMPDEST PUSH2 0x1E43 JUMPI POP JUMP JUMPDEST PUSH1 0x40 MLOAD PUSH4 0x5274AFE7 PUSH1 0xE0 SHL DUP2 MSTORE PUSH1 0x1 PUSH1 0x1 PUSH1 0xA0 SHL SUB SWAP1 SWAP2 AND PUSH1 0x4 DUP3 ADD MSTORE PUSH1 0x24 SWAP1 REVERT JUMPDEST PUSH1 0x1 EQ ISZERO PUSH2 0x1E3C JUMP JUMPDEST PUSH1 0x40 MLOAD RETURNDATASIZE PUSH1 0x0 DUP3 RETURNDATACOPY RETURNDATASIZE SWAP1 REVERT JUMPDEST PUSH1 0x2 PUSH1 0x0 SLOAD EQ PUSH2 0x1E8B JUMPI PUSH1 0x2 PUSH1 0x0 SSTORE JUMP JUMPDEST PUSH1 0x40 MLOAD PUSH4 0x3EE5AEB5 PUSH1 0xE0 SHL DUP2 MSTORE PUSH1 0x4 SWAP1 REVERT JUMPDEST SWAP2 SWAP1 DUP3 SUB SWAP2 DUP3 GT PUSH2 0x1DFC JUMPI JUMP JUMPDEST PUSH1 0x40 MLOAD PUSH4 0xA9059CBB PUSH1 0xE0 SHL PUSH1 0x20 DUP3 ADD MSTORE PUSH1 0x1 PUSH1 0x1 PUSH1 0xA0 SHL SUB SWAP1 SWAP3 AND PUSH1 0x24 DUP4 ADD MSTORE PUSH1 0x44 DUP1 DUP4 ADD SWAP4 SWAP1 SWAP4 MSTORE SWAP2 DUP2 MSTORE PUSH1 0x80 DUP2 ADD SWAP2 PUSH1 0x1 PUSH1 0x1 PUSH1 0x40 SHL SUB DUP4 GT DUP3 DUP5 LT OR PUSH2 0x642 JUMPI PUSH2 0x1EF9 SWAP3 PUSH1 0x40 MSTORE PUSH2 0x1E12 JUMP JUMPDEST JUMP JUMPDEST ISZERO PUSH2 0x1F02 JUMPI JUMP JUMPDEST PUSH1 0x40 MLOAD PUSH3 0x461BCD PUSH1 0xE5 SHL DUP2 MSTORE PUSH1 0x20 PUSH1 0x4 DUP3 ADD MSTORE PUSH1 0x13 PUSH1 0x24 DUP3 ADD MSTORE PUSH19 0x496E76616C69642073657373696F6E206B6579 PUSH1 0x68 SHL PUSH1 0x44 DUP3 ADD MSTORE PUSH1 0x64 SWAP1 REVERT JUMPDEST DUP1 SLOAD PUSH9 0x10000000000000000 DUP2 LT ISZERO PUSH2 0x642 JUMPI PUSH2 0x1F5F SWAP2 PUSH1 0x1 DUP3 ADD DUP2 SSTORE PUSH2 0x1BDF JUMP JUMPDEST DUP2 SWAP3 SWAP2 SLOAD SWAP1 PUSH1 0x3 SHL SWAP2 PUSH1 0x1 DUP1 PUSH1 0xA0 SHL SUB DUP1 SWAP2 AND DUP4 SHL SWAP3 SHL NOT AND OR SWAP1 SSTORE JUMP JUMPDEST PUSH1 0x0 NOT DUP2 EQ PUSH2 0x1DFC JUMPI PUSH1 0x1 ADD SWAP1 JUMP JUMPDEST SWAP3 SWAP2 SWAP3 PUSH1 0x1 PUSH1 0x1 PUSH1 0x40 SHL SUB DUP3 GT PUSH2 0x642 JUMPI PUSH1 0x40 MLOAD SWAP2 PUSH2 0x1FB5 PUSH1 0x1F DUP3 ADD PUSH1 0x1F NOT AND PUSH1 0x20 ADD DUP5 PUSH2 0x1BBE JUMP JUMPDEST DUP3 SWAP5 DUP2 DUP5 MSTORE DUP2 DUP4 ADD GT PUSH2 0x1B9 JUMPI DUP3 DUP2 PUSH1 0x20 SWAP4 DUP5 PUSH1 0x0 SWAP7 ADD CALLDATACOPY ADD ADD MSTORE JUMP JUMPDEST DUP2 MLOAD SWAP2 SWAP1 PUSH1 0x41 DUP4 SUB PUSH2 0x2003 JUMPI PUSH2 0x1FFC SWAP3 POP PUSH1 0x20 DUP3 ADD MLOAD SWAP1 PUSH1 0x60 PUSH1 0x40 DUP5 ADD MLOAD SWAP4 ADD MLOAD PUSH1 0x0 BYTE SWAP1 PUSH2 0x200E JUMP JUMPDEST SWAP2 SWAP3 SWAP1 SWAP2 SWAP1 JUMP JUMPDEST POP POP PUSH1 0x0 SWAP2 PUSH1 0x2 SWAP2 SWAP1 JUMP JUMPDEST SWAP2 SWAP1 PUSH32 0x7FFFFFFFFFFFFFFFFFFFFFFFFFFFFFFF5D576E7357A4501DDFE92F46681B20A0 DUP5 GT PUSH2 0x2092 JUMPI SWAP3 PUSH1 0x20 SWAP3 SWAP2 PUSH1 0xFF PUSH1 0x80 SWAP6 PUSH1 0x40 MLOAD SWAP5 DUP6 MSTORE AND DUP5 DUP5 ADD MSTORE PUSH1 0x40 DUP4 ADD MSTORE PUSH1 0x60 DUP3 ADD MSTORE PUSH1 0x0 SWAP3 DUP4 SWAP2 DUP3 DUP1 MSTORE PUSH1 0x1 GAS STATICCALL ISZERO PUSH2 0x2086 JUMPI DUP1 MLOAD PUSH1 0x1 PUSH1 0x1 PUSH1 0xA0 SHL SUB DUP2 AND ISZERO PUSH2 0x207D JUMPI SWAP2 DUP2 SWAP1 JUMP JUMPDEST POP DUP1 SWAP2 PUSH1 0x1 SWAP2 SWAP1 JUMP JUMPDEST PUSH1 0x40 MLOAD SWAP1 RETURNDATASIZE SWAP1 DUP3 RETURNDATACOPY RETURNDATASIZE SWAP1 REVERT JUMPDEST POP POP POP PUSH1 0x0 SWAP2 PUSH1 0x3 SWAP2 SWAP1 JUMP JUMPDEST PUSH1 0x4 DUP2 LT ISZERO PUSH2 0x210D JUMPI DUP1 PUSH2 0x20B0 JUMPI POP POP JUMP JUMPDEST PUSH1 0x1 DUP2 SUB PUSH2 0x20CA JUMPI PUSH1 0x40 MLOAD PUSH4 0xF645EEDF PUSH1 0xE0 SHL DUP2 MSTORE PUSH1 0x4 SWAP1 REVERT JUMPDEST PUSH1 0x2 DUP2 SUB PUSH2 0x20EB JUMPI PUSH1 0x40 MLOAD PUSH4 0xFCE698F7 PUSH1 0xE0 SHL DUP2 MSTORE PUSH1 0x4 DUP2 ADD DUP4 SWAP1 MSTORE PUSH1 0x24 SWAP1 REVERT JUMPDEST PUSH1 0x3 EQ PUSH2 0x20F5 JUMPI POP JUMP JUMPDEST PUSH1 0x24 SWAP1 PUSH1 0x40 MLOAD SWAP1 PUSH4 0x35E2F383 PUSH1 0xE2 SHL DUP3 MSTORE PUSH1 0x4 DUP3 ADD MSTORE REVERT JUMPDEST PUSH4 0x4E487B71 PUSH1 0xE0 SHL PUSH1 0x0 MSTORE PUSH1 0x21 PUSH1 0x4 MSTORE PUSH1 0x24 PUSH1 0x0 REVERT JUMPDEST PUSH1 0x42 SWAP1 PUSH2 0x212E PUSH2 0x2149 JUMP JUMPDEST SWAP1 PUSH1 0x40 MLOAD SWAP2 PUSH2 0x1901 PUSH1 0xF0 SHL DUP4 MSTORE PUSH1 0x2 DUP4 ADD MSTORE PUSH1 0x22 DUP3 ADD MSTORE KECCAK256 SWAP1 JUMP JUMPDEST ADDRESS PUSH32 0x0 PUSH1 0x1 PUSH1 0x1 PUSH1 0xA0 SHL SUB AND EQ DUP1 PUSH2 0x223A JUMPI JUMPDEST ISZERO PUSH2 0x21A4 JUMPI PUSH32 0x0 SWAP1 JUMP JUMPDEST PUSH1 0x40 MLOAD PUSH1 0x20 DUP2 ADD SWAP1 PUSH32 0x8B73C3C69BB8FE3D512ECC4CF759CC79239F7B179B0FFACAA9A75D522B39400F DUP3 MSTORE PUSH32 0x0 PUSH1 0x40 DUP3 ADD MSTORE PUSH32 0x0 PUSH1 0x60 DUP3 ADD MSTORE CHAINID PUSH1 0x80 DUP3 ADD MSTORE ADDRESS PUSH1 0xA0 DUP3 ADD MSTORE PUSH1 0xA0 DUP2 MSTORE PUSH2 0x2234 DUP2 PUSH2 0x1B88 JUMP JUMPDEST MLOAD SWAP1 KECCAK256 SWAP1 JUMP JUMPDEST POP PUSH32 0x0 CHAINID EQ PUSH2 0x217B JUMP JUMPDEST ISZERO PUSH2 0x226A JUMPI JUMP JUMPDEST PUSH1 0x40 MLOAD PUSH3 0x461BCD PUSH1 0xE5 SHL DUP2 MSTORE PUSH1 0x20 PUSH1 0x4 DUP3 ADD MSTORE PUSH1 0x10 PUSH1 0x24 DUP3 ADD MSTORE PUSH16 0x11195C1BDCDA5D081C995C5D5A5C9959 PUSH1 0x82 SHL PUSH1 0x44 DUP3 ADD MSTORE PUSH1 0x64 SWAP1 REVERT JUMPDEST SWAP1 DUP1 PUSH1 0x20 SWAP4 SWAP3 DUP2 DUP5 MSTORE DUP5 DUP5 ADD CALLDATACOPY PUSH1 0x0 DUP3 DUP3 ADD DUP5 ADD MSTORE PUSH1 0x1F ADD PUSH1 0x1F NOT AND ADD ADD SWAP1 JUMP JUMPDEST DUP2 DUP2 MUL SWAP3 SWAP2 DUP2 ISZERO SWAP2 DUP5 DIV EQ OR ISZERO PUSH2 0x1DFC JUMPI JUMP JUMPDEST PUSH1 0x0 MSTORE PUSH1 0x8 PUSH1 0x20 MSTORE PUSH1 0x40 PUSH1 0x0 KECCAK256 PUSH1 0xFF PUSH1 0x4 DUP3 ADD SLOAD AND ISZERO PUSH2 0x230D JUMPI DUP1 PUSH1 0x2 PUSH2 0x2304 PUSH1 0x3 PUSH2 0x1CB1 SWAP5 ADD SLOAD TIMESTAMP PUSH2 0x1E9D JUMP JUMPDEST SWAP2 ADD SLOAD SWAP1 PUSH2 0x22C3 JUMP JUMPDEST POP PUSH1 0x0 SWAP1 JUMP INVALID 0x26 SWAP6 SWAP15 XOR PUSH24 0x5FBD2EABCC8C8CCBE9E125E15A7B55F9C94B72DECFCC74AE PUSH6 0xEF59A2646970 PUSH7 0x73582212204A64 COINBASE 0xE7 PUSH23 0xED2397512A82D9064A9AC348DD012A30CA8B43FAC8D2F7 POP PUSH20 0x54064736F6C6343000814003300000000000000 "},"methodIdentifiers":{"DOMAIN_SEPARATOR()":"3644e515","PAYMENT_TYPEHASH()":"6d3298cb","SESSION_KEY_TYPEHASH()":"76eb389b","calculateRentalCost(uint256)":"3e9f4fa0","deposit(uint256)":"b6b55f25","deposits(address)":"fc7e286d","eip712Domain()":"84b0196e","endRental(uint256)":"97491d6f","feeRecipient()":"46904840","getAvailableBalance(address)":"6c24a76f","getRental(uint256)":"652bd29e","getSessionKey(address)":"7a364461","getUserSessionKeys(address)":"f06d8ed2","nonces(address)":"7ecebe00","owner()":"8da5cb5b","paymentToken()":"3013ce29","platformFeeBps()":"22dcd13e","processPaymentWithSessionKey(address,address,uint256,string,uint256,bytes)":"b25ef193","registerSessionKey(address,uint256,uint256)":"1fec2a6b","registerSessionKeyWithSignature(address,address,uint256,uint256,bytes)":"8f623905","renounceOwnership()":"715018a6","rentalCount()":"0a294ab6","rentals(uint256)":"af94a1d1","revokeSessionKey(address)":"84f4fc6a","sessionKeys(address)":"b7b8d604","setFeeRecipient(address)":"e74b981b","setPlatformFee(uint256)":"12e8e2c3","startRental(address,uint256,string)":"9723091f","startRentalWithSessionKey(address,address,uint256,string)":"cb8ec30f","transferOwnership(address)":"f2fde38b","userSessionKeys(address,uint256)":"c9a087fc","withdraw(uint256)":"2e1a7d4d"}}}}}