{
  "_format": "hh-sol-artifact-1",
  "contractName": "GPUVault",
  "sourceName": "src/GPUVault.sol",
  "abi": [
    {
      "inputs": [
        {
          "internalType": "address",
          "name": "_paymentToken",
          "type": "address"
        },
        {
          "internalType": "address",
          "name": "_feeRecipient",
          "type": "address"
        }
      ],
      "stateMutability": "nonpayable",
      "type": "constructor"
    },
    {
      "inputs": [],
      "name": "DeadlineExpired",
      "type": "error"
    },
    {
      "inputs": [],
      "name": "ECDSAInvalidSignature",
      "type": "error"
    },
    {
      "inputs": [
        {
          "internalType": "uint256",
          "name": "length",
          "type": "uint256"
        }
      ],
      "name": "ECDSAInvalidSignatureLength",
      "type": "error"
    },
    {
      "inputs": [
        {
          "internalType": "bytes32",
          "name": "s",
          "type": "bytes32"
        }
      ],
      "name": "ECDSAInvalidSignatureS",
      "type": "error"
    },
    {
      "inputs": [],
      "name": "InsufficientDeposit",
      "type": "error"
    },
    {
      "inputs": [],
      "name": "InvalidSessionKey",
      "type": "error"
    },
    {
      "inputs": [],
      "name": "InvalidShortString",
      "type": "error"
    },
    {
      "inputs": [],
      "name": "InvalidSignature",
      "type": "error"
    },
    {
      "inputs": [
        {
          "internalType": "address",
          "name": "owner",
          "type": "address"
        }
      ],
      "name": "OwnableInvalidOwner",
      "type": "error"
    },
    {
      "inputs": [
        {
          "internalType": "address",
          "name": "account",
          "type": "address"
        }
      ],
      "name": "OwnableUnauthorizedAccount",
      "type": "error"
    },
    {
      "inputs": [],
      "name": "ReentrancyGuardReentrantCall",
      "type": "error"
    },
    {
      "inputs": [],
      "name": "RentalNotActive",
      "type": "error"
    },
    {
      "inputs": [
        {
          "internalType": "address",
          "name": "token",
          "type": "address"
        }
      ],
      "name": "SafeERC20FailedOperation",
      "type": "error"
    },
    {
      "inputs": [],
      "name": "SessionKeyExpired",
      "type": "error"
    },
    {
      "inputs": [],
      "name": "SpendLimitExceeded",
      "type": "error"
    },
    {
      "inputs": [
        {
          "internalType": "string",
          "name": "str",
          "type": "string"
        }
      ],
      "name": "StringTooLong",
      "type": "error"
    },
    {
      "inputs": [],
      "name": "ZeroAmount",
      "type": "error"
    },
    {
      "anonymous": false,
      "inputs": [
        {
          "indexed": true,
          "internalType": "address",
          "name": "user",
          "type": "address"
        },
        {
          "indexed": false,
          "internalType": "uint256",
          "name": "amount",
          "type": "uint256"
        }
      ],
      "name": "Deposited",
      "type": "event"
    },
    {
      "anonymous": false,
      "inputs": [],
      "name": "EIP712DomainChanged",
      "type": "event"
    },
    {
      "anonymous": false,
      "inputs": [
        {
          "indexed": true,
          "internalType": "address",
          "name": "previousOwner",
          "type": "address"
        },
        {
          "indexed": true,
          "internalType": "address",
          "name": "newOwner",
          "type": "address"
        }
      ],
      "name": "OwnershipTransferred",
      "type": "event"
    },
    {
      "anonymous": false,
      "inputs": [
        {
          "indexed": true,
          "internalType": "address",
          "name": "from",
          "type": "address"
        },
        {
          "indexed": true,
          "internalType": "address",
          "name": "to",
          "type": "address"
        },
        {
          "indexed": false,
          "internalType": "uint256",
          "name": "amount",
          "type": "uint256"
        },
        {
          "indexed": false,
          "internalType": "string",
          "name": "jobId",
          "type": "string"
        }
      ],
      "name": "PaymentProcessed",
      "type": "event"
    },
    {
      "anonymous": false,
      "inputs": [
        {
          "indexed": true,
          "internalType": "uint256",
          "name": "rentalId",
          "type": "uint256"
        },
        {
          "indexed": false,
          "internalType": "uint256",
          "name": "totalCost",
          "type": "uint256"
        },
        {
          "indexed": false,
          "internalType": "uint256",
          "name": "platformFee",
          "type": "uint256"
        }
      ],
      "name": "RentalEnded",
      "type": "event"
    },
    {
      "anonymous": false,
      "inputs": [
        {
          "indexed": true,
          "internalType": "uint256",
          "name": "rentalId",
          "type": "uint256"
        },
        {
          "indexed": true,
          "internalType": "address",
          "name": "renter",
          "type": "address"
        },
        {
          "indexed": true,
          "internalType": "address",
          "name": "provider",
          "type": "address"
        },
        {
          "indexed": false,
          "internalType": "string",
          "name": "jobId",
          "type": "string"
        },
        {
          "indexed": false,
          "internalType": "uint256",
          "name": "pricePerSecond",
          "type": "uint256"
        }
      ],
      "name": "RentalStarted",
      "type": "event"
    },
    {
      "anonymous": false,
      "inputs": [
        {
          "indexed": true,
          "internalType": "address",
          "name": "mainWallet",
          "type": "address"
        },
        {
          "indexed": true,
          "internalType": "address",
          "name": "sessionKey",
          "type": "address"
        },
        {
          "indexed": false,
          "internalType": "uint256",
          "name": "spendLimit",
          "type": "uint256"
        },
        {
          "indexed": false,
          "internalType": "uint256",
          "name": "expiry",
          "type": "uint256"
        }
      ],
      "name": "SessionKeyRegistered",
      "type": "event"
    },
    {
      "anonymous": false,
      "inputs": [
        {
          "indexed": true,
          "internalType": "address",
          "name": "mainWallet",
          "type": "address"
        },
        {
          "indexed": true,
          "internalType": "address",
          "name": "sessionKey",
          "type": "address"
        }
      ],
      "name": "SessionKeyRevoked",
      "type": "event"
    },
    {
      "anonymous": false,
      "inputs": [
        {
          "indexed": true,
          "internalType": "address",
          "name": "user",
          "type": "address"
        },
        {
          "indexed": false,
          "internalType": "uint256",
          "name": "amount",
          "type": "uint256"
        }
      ],
      "name": "Withdrawn",
      "type": "event"
    },
    {
      "inputs": [],
      "name": "DOMAIN_SEPARATOR",
      "outputs": [
        {
          "internalType": "bytes32",
          "name": "",
          "type": "bytes32"
        }
      ],
      "stateMutability": "view",
      "type": "function"
    },
    {
      "inputs": [],
      "name": "PAYMENT_TYPEHASH",
      "outputs": [
        {
          "internalType": "bytes32",
          "name": "",
          "type": "bytes32"
        }
      ],
      "stateMutability": "view",
      "type": "function"
    },
    {
      "inputs": [],
      "name": "SESSION_KEY_TYPEHASH",
      "outputs": [
        {
          "internalType": "bytes32",
          "name": "",
          "type": "bytes32"
        }
      ],
      "stateMutability": "view",
      "type": "function"
    },
    {
      "inputs": [
        {
          "internalType": "uint256",
          "name": "rentalId",
          "type": "uint256"
        }
      ],
      "name": "calculateRentalCost",
      "outputs": [
        {
          "internalType": "uint256",
          "name": "",
          "type": "uint256"
        }
      ],
      "stateMutability": "view",
      "type": "function"
    },
    {
      "inputs": [
        {
          "internalType": "uint256",
          "name": "amount",
          "type": "uint256"
        }
      ],
      "name": "deposit",
      "outputs": [],
      "stateMutability": "nonpayable",
      "type": "function"
    },
    {
      "inputs": [
        {
          "internalType": "address",
          "name": "",
          "type": "address"
        }
      ],
      "name": "deposits",
      "outputs": [
        {
          "internalType": "uint256",
          "name": "",
          "type": "uint256"
        }
      ],
      "stateMutability": "view",
      "type": "function"
    },
    {
      "inputs": [],
      "name": "eip712Domain",
      "outputs": [
        {
          "internalType": "bytes1",
          "name": "fields",
          "type": "bytes1"
        },
        {
          "internalType": "string",
          "name": "name",
          "type": "string"
        },
        {
          "internalType": "string",
          "name": "version",
          "type": "string"
        },
        {
          "internalType": "uint256",
          "name": "chainId",
          "type": "uint256"
        },
        {
          "internalType": "address",
          "name": "verifyingContract",
          "type": "address"
        },
        {
          "internalType": "bytes32",
          "name": "salt",
          "type": "bytes32"
        },
        {
          "internalType": "uint256[]",
          "name": "extensions",
          "type": "uint256[]"
        }
      ],
      "stateMutability": "view",
      "type": "function"
    },
    {
      "inputs": [
        {
          "internalType": "uint256",
          "name": "rentalId",
          "type": "uint256"
        }
      ],
      "name": "endRental",
      "outputs": [],
      "stateMutability": "nonpayable",
      "type": "function"
    },
    {
      "inputs": [],
      "name": "feeRecipient",
      "outputs": [
        {
          "internalType": "address",
          "name": "",
          "type": "address"
        }
      ],
      "stateMutability": "view",
      "type": "function"
    },
    {
      "inputs": [
        {
          "internalType": "address",
          "name": "user",
          "type": "address"
        }
      ],
      "name": "getAvailableBalance",
      "outputs": [
        {
          "internalType": "uint256",
          "name": "",
          "type": "uint256"
        }
      ],
      "stateMutability": "view",
      "type": "function"
    },
    {
      "inputs": [
        {
          "internalType": "uint256",
          "name": "rentalId",
          "type": "uint256"
        }
      ],
      "name": "getRental",
      "outputs": [
        {
          "components": [
            {
              "internalType": "address",
              "name": "renter",
              "type": "address"
            },
            {
              "internalType": "address",
              "name": "provider",
              "type": "address"
            },
            {
              "internalType": "uint256",
              "name": "pricePerSecond",
              "type": "uint256"
            },
            {
              "internalType": "uint256",
              "name": "startTime",
              "type": "uint256"
            },
            {
              "internalType": "bool",
              "name": "isActive",
              "type": "bool"
            },
            {
              "internalType": "string",
              "name": "jobId",
              "type": "string"
            }
          ],
          "internalType": "struct GPUVault.Rental",
          "name": "",
          "type": "tuple"
        }
      ],
      "stateMutability": "view",
      "type": "function"
    },
    {
      "inputs": [
        {
          "internalType": "address",
          "name": "sessionKey",
          "type": "address"
        }
      ],
      "name": "getSessionKey",
      "outputs": [
        {
          "components": [
            {
              "internalType": "address",
              "name": "mainWallet",
              "type": "address"
            },
            {
              "internalType": "uint256",
              "name": "spendLimit",
              "type": "uint256"
            },
            {
              "internalType": "uint256",
              "name": "spentAmount",
              "type": "uint256"
            },
            {
              "internalType": "uint256",
              "name": "expiry",
              "type": "uint256"
            },
            {
              "internalType": "bool",
              "name": "isActive",
              "type": "bool"
            }
          ],
          "internalType": "struct GPUVault.SessionKey",
          "name": "",
          "type": "tuple"
        }
      ],
      "stateMutability": "view",
      "type": "function"
    },
    {
      "inputs": [
        {
          "internalType": "address",
          "name": "user",
          "type": "address"
        }
      ],
      "name": "getUserSessionKeys",
      "outputs": [
        {
          "internalType": "address[]",
          "name": "",
          "type": "address[]"
        }
      ],
      "stateMutability": "view",
      "type": "function"
    },
    {
      "inputs": [
        {
          "internalType": "address",
          "name": "",
          "type": "address"
        }
      ],
      "name": "nonces",
      "outputs": [
        {
          "internalType": "uint256",
          "name": "",
          "type": "uint256"
        }
      ],
      "stateMutability": "view",
      "type": "function"
    },
    {
      "inputs": [],
      "name": "owner",
      "outputs": [
        {
          "internalType": "address",
          "name": "",
          "type": "address"
        }
      ],
      "stateMutability": "view",
      "type": "function"
    },
    {
      "inputs": [],
      "name": "paymentToken",
      "outputs": [
        {
          "internalType": "contract IERC20",
          "name": "",
          "type": "address"
        }
      ],
      "stateMutability": "view",
      "type": "function"
    },
    {
      "inputs": [],
      "name": "platformFeeBps",
      "outputs": [
        {
          "internalType": "uint256",
          "name": "",
          "type": "uint256"
        }
      ],
      "stateMutability": "view",
      "type": "function"
    },
    {
      "inputs": [
        {
          "internalType": "address",
          "name": "sessionKey",
          "type": "address"
        },
        {
          "internalType": "address",
          "name": "to",
          "type": "address"
        },
        {
          "internalType": "uint256",
          "name": "amount",
          "type": "uint256"
        },
        {
          "internalType": "string",
          "name": "jobId",
          "type": "string"
        },
        {
          "internalType": "uint256",
          "name": "deadline",
          "type": "uint256"
        },
        {
          "internalType": "bytes",
          "name": "signature",
          "type": "bytes"
        }
      ],
      "name": "processPaymentWithSessionKey",
      "outputs": [],
      "stateMutability": "nonpayable",
      "type": "function"
    },
    {
      "inputs": [
        {
          "internalType": "address",
          "name": "sessionKey",
          "type": "address"
        },
        {
          "internalType": "uint256",
          "name": "spendLimit",
          "type": "uint256"
        },
        {
          "internalType": "uint256",
          "name": "duration",
          "type": "uint256"
        }
      ],
      "name": "registerSessionKey",
      "outputs": [],
      "stateMutability": "nonpayable",
      "type": "function"
    },
    {
      "inputs": [
        {
          "internalType": "address",
          "name": "mainWallet",
          "type": "address"
        },
        {
          "internalType": "address",
          "name": "sessionKey",
          "type": "address"
        },
        {
          "internalType": "uint256",
          "name": "spendLimit",
          "type": "uint256"
        },
        {
          "internalType": "uint256",
          "name": "expiry",
          "type": "uint256"
        },
        {
          "internalType": "bytes",
          "name": "signature",
          "type": "bytes"
        }
      ],
      "name": "registerSessionKeyWithSignature",
      "outputs": [],
      "stateMutability": "nonpayable",
      "type": "function"
    },
    {
      "inputs": [],
      "name": "renounceOwnership",
      "outputs": [],
      "stateMutability": "nonpayable",
      "type": "function"
    },
    {
      "inputs": [],
      "name": "rentalCount",
      "outputs": [
        {
          "internalType": "uint256",
          "name": "",
          "type": "uint256"
        }
      ],
      "stateMutability": "view",
      "type": "function"
    },
    {
      "inputs": [
        {
          "internalType": "uint256",
          "name": "",
          "type": "uint256"
        }
      ],
      "name": "rentals",
      "outputs": [
        {
          "internalType": "address",
          "name": "renter",
          "type": "address"
        },
        {
          "internalType": "address",
          "name": "provider",
          "type": "address"
        },
        {
          "internalType": "uint256",
          "name": "pricePerSecond",
          "type": "uint256"
        },
        {
          "internalType": "uint256",
          "name": "startTime",
          "type": "uint256"
        },
        {
          "internalType": "bool",
          "name": "isActive",
          "type": "bool"
        },
        {
          "internalType": "string",
          "name": "jobId",
          "type": "string"
        }
      ],
      "stateMutability": "view",
      "type": "function"
    },
    {
      "inputs": [
        {
          "internalType": "address",
          "name": "sessionKey",
          "type": "address"
        }
      ],
      "name": "revokeSessionKey",
      "outputs": [],
      "stateMutability": "nonpayable",
      "type": "function"
    },
    {
      "inputs": [
        {
          "internalType": "address",
          "name": "",
          "type": "address"
        }
      ],
      "name": "sessionKeys",
      "outputs": [
        {
          "internalType": "address",
          "name": "mainWallet",
          "type": "address"
        },
        {
          "internalType": "uint256",
          "name": "spendLimit",
          "type": "uint256"
        },
        {
          "internalType": "uint256",
          "name": "spentAmount",
          "type": "uint256"
        },
        {
          "internalType": "uint256",
          "name": "expiry",
          "type": "uint256"
        },
        {
          "internalType": "bool",
          "name": "isActive",
          "type": "bool"
        }
      ],
      "stateMutability": "view",
      "type": "function"
    },
    {
      "inputs": [
        {
          "internalType": "address",
          "name": "newRecipient",
          "type": "address"
        }
      ],
      "name": "setFeeRecipient",
      "outputs": [],
      "stateMutability": "nonpayable",
      "type": "function"
    },
    {
      "inputs": [
        {
          "internalType": "uint256",
          "name": "newFeeBps",
          "type": "uint256"
        }
      ],
      "name": "setPlatformFee",
      "outputs": [],
      "stateMutability": "nonpayable",
      "type": "function"
    },
    {
      "inputs": [
        {
          "internalType": "address",
          "name": "provider",
          "type": "address"
        },
        {
          "internalType": "uint256",
          "name": "pricePerSecond",
          "type": "uint256"
        },
        {
          "internalType": "string",
          "name": "jobId",
          "type": "string"
        }
      ],
      "name": "startRental",
      "outputs": [
        {
          "internalType": "uint256",
          "name": "rentalId",
          "type": "uint256"
        }
      ],
      "stateMutability": "nonpayable",
      "type": "function"
    },
    {
      "inputs": [
        {
          "internalType": "address",
          "name": "sessionKey",
          "type": "address"
        },
        {
          "internalType": "address",
          "name": "provider",
          "type": "address"
        },
        {
          "internalType": "uint256",
          "name": "pricePerSecond",
          "type": "uint256"
        },
        {
          "internalType": "string",
          "name": "jobId",
          "type": "string"
        }
      ],
      "name": "startRentalWithSessionKey",
      "outputs": [
        {
          "internalType": "uint256",
          "name": "rentalId",
          "type": "uint256"
        }
      ],
      "stateMutability": "nonpayable",
      "type": "function"
    },
    {
      "inputs": [
        {
          "internalType": "address",
          "name": "newOwner",
          "type": "address"
        }
      ],
      "name": "transferOwnership",
      "outputs": [],
      "stateMutability": "nonpayable",
      "type": "function"
    },
    {
      "inputs": [
        {
          "internalType": "address",
          "name": "",
          "type": "address"
        },
        {
          "internalType": "uint256",
          "name": "",
          "type": "uint256"
        }
      ],
      "name": "userSessionKeys",
      "outputs": [
        {
          "internalType": "address",
          "name": "",
          "type": "address"
        }
      ],
      "stateMutability": "view",
      "type": "function"
    },
    {
      "inputs": [
        {
          "internalType": "uint256",
          "name": "amount",
          "type": "uint256"
        }
      ],
      "name": "withdraw",
      "outputs": [],
      "stateMutability": "nonpayable",
      "type": "function"
    }
  ],
  "bytecode": "0x6101803462000246576200298e906001600160401b0390601f38849003908101601f1916820190838211838310176200024b5780839160409687948552833981010312620002465762000060602062000058836200027d565b92016200027d565b8351906200006e8262000261565b6008825260208201906711d41555985d5b1d60c21b8252855195620000938762000261565b600187526020870191603160f81b83526000976001895533156200022e57600180546001600160a01b031980821633908117909355956001600160a01b039592909186167f8be0079c531659141344cd1fd0a4f28419497f9722a3daafe3b4186f6b6457e08d80a3620001068862000292565b9661012097885262000118846200046f565b98610140998a52519020928360e052519020906101009a828c524660a05281519260208401947f8b73c3c69bb8fe3d512ecc4cf759cc79239f7b179b0ffacaa9a75d522b39400f86528385015260608401524660808401523060a084015260a0835260c083019a838c10908c11176200021a57508990525190206080523060c0526101f4600a5581610160961686521690600b541617600b55612369948562000625863960805185612182015260a0518561223d015260c0518561214c015260e051856121d1015251846121f701525183611298015251826112c101525181818161079901528181610a4b01528181610c76015281816116e4015261176c0152f35b634e487b7160e01b81526041600452602490fd5b8251631e4fbdf760e01b8152600481018a9052602490fd5b600080fd5b634e487b7160e01b600052604160045260246000fd5b604081019081106001600160401b038211176200024b57604052565b51906001600160a01b03821682036200024657565b8051602090818110156200032f5750601f825111620002ce5780825192015190808310620002bf57501790565b82600019910360031b1b161790565b90604051809263305a27a960e01b82528060048301528251908160248401526000935b82851062000315575050604492506000838284010152601f80199101168101030190fd5b8481018201518686016044015293810193859350620002f1565b906001600160401b0382116200024b57600254926001938481811c9116801562000464575b838210146200044e57601f811162000414575b5081601f8411600114620003a857509282939183926000946200039c575b50501b916000199060031b1c19161760025560ff90565b01519250388062000385565b919083601f198116600260005284600020946000905b88838310620003f95750505010620003df575b505050811b0160025560ff90565b015160001960f88460031b161c19169055388080620003d1565b858701518855909601959485019487935090810190620003be565b600260005284601f84600020920160051c820191601f860160051c015b8281106200044157505062000367565b6000815501859062000431565b634e487b7160e01b600052602260045260246000fd5b90607f169062000354565b80516020919082811015620004ff575090601f8251116200049e5780825192015190808310620002bf57501790565b90604051809263305a27a960e01b82528060048301528251908160248401526000935b828510620004e5575050604492506000838284010152601f80199101168101030190fd5b8481018201518686016044015293810193859350620004c1565b6001600160401b0381116200024b576003928354926001938481811c9116801562000619575b838210146200044e57601f8111620005e0575b5081601f84116001146200057757509282939183926000946200056b575b50501b9160001990841b1c191617905560ff90565b01519250388062000556565b919083601f1981168760005284600020946000905b88838310620005c55750505010620005ac575b505050811b01905560ff90565b015160001983861b60f8161c191690553880806200059f565b8587015188559096019594850194879350908101906200058c565b8560005284601f84600020920160051c820191601f860160051c015b8281106200060c57505062000538565b60008155018590620005fc565b90607f16906200052556fe608080604052600436101561001357600080fd5b60003560e01c9081630a294ab6146119e95750806312e8e2c31461198b5780631fec2a6b146117e157806322dcd13e146117c35780632e1a7d4d146117135780633013ce29146116ce5780633644e515146116b35780633e9f4fa01461168d5780634690484014611664578063652bd29e1461155d5780636c24a76f1461017f5780636d3298cb14611522578063715018a6146114c557806376eb389b1461148a5780637a364461146113c55780637ecebe001461138b57806384b0196e1461128257806384f4fc6a146111dd5780638da5cb5b146111b45780638f62390514610faa5780639723091f14610ce357806397491d6f14610b83578063af94a1d114610ae9578063b25ef1931461081d578063b6b55f2514610743578063b7b8d604146106d5578063c9a087fc1461067c578063cb8ec30f14610379578063e74b981b146102fa578063f06d8ed214610247578063f2fde38b146101be5763fc7e286d1461017f57600080fd5b346101b95760203660031901126101b9576001600160a01b036101a0611a04565b1660005260046020526020604060002054604051908152f35b600080fd5b346101b95760203660031901126101b9576101d7611a04565b6101df611c0d565b6001600160a01b0390811690811561022e57600154826001600160601b0360a01b821617600155167f8be0079c531659141344cd1fd0a4f28419497f9722a3daafe3b4186f6b6457e0600080a3005b604051631e4fbdf760e01b815260006004820152602490fd5b346101b9576020806003193601126101b9576001600160a01b03908161026b611a04565b1660005260068152604060002060405191828183549182815201908193600052826000209060005b8181106102e457505050836102a9910384611bbe565b60405192818401908285525180915260408401929160005b8281106102ce5785850386f35b83518716855293810193928101926001016102c1565b8254881684529284019260019283019201610293565b346101b95760203660031901126101b957610313611a04565b61031b611c0d565b6001600160a01b03168015610342576001600160601b0360a01b600b541617600b55600080f35b60405162461bcd60e51b815260206004820152600f60248201526e496e76616c6964206164647265737360881b6044820152606490fd5b346101b95760803660031901126101b957610392611a04565b61039a611a1a565b6064356001600160401b0381116101b9576103b9903690600401611a70565b909260018060a01b03166000526005602052604060002060ff6004820154161561066a576003810154421161065857546001600160a01b031660008181526004602052604090205461040c901515612263565b6009549261041984611f7d565b6009556040519061042982611b88565b8282526001600160a01b03166020820181905260443560408301524260608301526001608083015292600561045f368389611f8c565b9260a081019384528660005260086020526104de608060406000209260018060a01b038151166001600160601b0360a01b9081865416178555600185019060018060a01b0360208401511690825416179055604081015160028501556060810151600385015501511515600483019060ff801983541691151516179055565b019151918251926001600160401b038411610642576104fd8254611a9d565b601f81116105fa575b50916020979187938990601f8711600114610580579580916000805160206123148339815191529697600092610575575b50508160011b916000199060031b1c19161790555b6105636040519283926040845260408401916122a2565b604435898301520390a4604051908152f35b015190508b80610537565b9590601f19821696836000528b6000209760005b8181106105e05750916000805160206123148339815191529798918460019594106105c7575b505050811b01905561054c565b015160001960f88460031b161c191690558b80806105ba565b838301518a556001909901988c9850928d01928d01610594565b826000526020600020601f860160051c81019160208710610638575b601f0160051c01905b81811061062c5750610506565b6000815560010161061f565b9091508190610616565b634e487b7160e01b600052604160045260246000fd5b604051636d03805160e11b8152600490fd5b604051635f8874dd60e11b8152600490fd5b346101b95760403660031901126101b957610695611a04565b6024359060018060a01b038091166000526006602052604060002080548310156101b9576020926106c591611bdf565b9190546040519260031b1c168152f35b346101b95760203660031901126101b95760a06001600160a01b03806106f9611a04565b16600052600560205260406000209081541690600181015490600281015460ff60046003840154930154169260405194855260208501526040840152606083015215156080820152f35b346101b95760203660031901126101b95760043561075f611e7a565b801561080b576107bd6040516323b872dd60e01b60208201523360248201523060448201528260648201526064815261079781611b6d565b7f0000000000000000000000000000000000000000000000000000000000000000611e12565b33600052600460205260406000206107d6828254611def565b90556040519081527f2da466a7b24304f47e87fa2e1e5a81b9831ce54fec19055ce277ca2f39ba42c460203392a26001600055005b604051631f2a200560e01b8152600490fd5b346101b95760c03660031901126101b957610836611a04565b61083e611a1a565b6064356001600160401b0381116101b95761085d903690600401611a70565b929060a4356001600160401b0381116101b95761087e903690600401611a70565b9390610888611e7a565b6084354211610ad75760018060a01b038416600052600560205260406000209360ff6004860154161561066a5760038501544211610658576108d06044356002870154611def565b600186015410610ac55784546001600160a01b0316956108f1368987611f8c565b602081519101209060018060a01b0383166000526007602052604060002080549061091b82611f7d565b9055604051927f83c16fb5990216990cb35e4d72b8c900905c38a883e269e3d6879809242bc7eb602085015289604085015260018060a01b0387166060850152604435608085015260a084015260c083015260843560e083015260e082526101008201918083106001600160401b03841117610642576109c6946109af6109b7926109bd9560405260208151910120612123565b923691611f8c565b90611fd2565b9093919361209e565b6001600160a01b03908116911603610ab35783600052600460205260443560406000205410610aa1577fb5e51a9058e00792fede50f44125bb8bc3f068a8f877644c8a3b3d02c74f56e0926002610a2260443582840154611def565b9101558360005260046020526040600020610a406044358254611e9d565b9055610a6f604435827f0000000000000000000000000000000000000000000000000000000000000000611eaa565b610a9760405192839260443584526040602085015260018060a01b03169660408401916122a2565b0390a36001600055005b60405163070f6eed60e11b8152600490fd5b604051638baa579f60e01b8152600490fd5b604051639bd0c54560e01b8152600490fd5b604051631ab7da6b60e01b8152600490fd5b346101b95760203660031901126101b9576004356000526008602052604060002060018060a01b03610b7f60058284541692600185015416936002810154600382015490610b5060ff60048501541693610b496040518097819301611ad7565b0385611bbe565b60405196879687526020870152604086015260608501521515608084015260c060a084015260c0830190611a30565b0390f35b346101b95760203660031901126101b957600435610b9f611e7a565b806000526008602052604060002090600482019160ff83541615610cd157610bd9610bce600383015442611e9d565b6002830154906122c3565b9081610bef575b835460ff191684556001600055005b60018060a01b039182825416918260005260046020528160406000205410610aa1577f29bebb989e48bff73fef1a7a123ccba02b57bee185efc942c49eea92d8fd1b8b93604093610c9f92612710610c49600a54876122c3565b04938492610c578488611e9d565b90600052600460205287600020610c6f888254611e9d565b90558460017f00000000000000000000000000000000000000000000000000000000000000009401541683611eaa565b81610cbb575b50505082519182526020820152a2818080610be0565b610cc992600b541690611eaa565b868181610ca5565b60405163f33650bd60e01b8152600490fd5b346101b95760603660031901126101b957610cfc611a04565b602435906001600160401b03906044358281116101b957610d21903690600401611a70565b9390933360005260209460048652610d3f6040600020541515612263565b8215610f75579085916009548096610d5682611f7d565b600955604051610d6581611b88565b3381526001600160a01b03978816868201818152604083018981524260608501908152600160808601818152949c909a919391610da3368c8c611f8c565b9860a08801998a5260005260089052806040600020965116906001600160601b0360a01b91828854161787558b8701925116908254161790555160028401555160038301555115156004820190610e05919060ff801983541691151516179055565b6005019151948551918211610642578895610e208454611a9d565b601f8111610f1b575b508a90601f8411600114610e9c579280610e7e95938193600080516020612314833981519152999896600094610e91575b50501b916000199060031b1c19161790555b604051926040845260408401916122a2565b93878201528033940390a4604051908152f35b015192508e80610e5a565b60008581528c8120939493929190601f198516908e5b828210610f0357505091600080516020612314833981519152989795939185610e7e98969410610eea575b505050811b019055610e6c565b015160001960f88460031b161c191690558c8080610edd565b8484015186558e9b509487019493840193018e610eb2565b9091929380959697506000528a600020601f850160051c8101918c8610610f6b575b90601f8c99989796959493920160051c01905b818110610f5d5750610e29565b600081558b98508301610f50565b9091508190610f3d565b60405162461bcd60e51b815260048101879052600d60248201526c496e76616c696420707269636560981b6044820152606490fd5b346101b95760a03660031901126101b957610fc3611a04565b610fcb611a1a565b6001600160401b0390606435906044356084358481116101b957610ff3903690600401611a70565b93909460018060a01b03948585169761100d891515611efb565b4284111561117d578616968760005260209260078452604060002080549061103482611f7d565b905560405193858501917f9cdedb650f0c832f0f08ec608cecf63cfb0854c9eb90a48cee2b93f48b11e1b783528b60408701528c60608701528860808701528760a087015260c086015260c0855260e085019285841090841117610642576109b78a946109af6110af948e986110b897604052519020612123565b9092919261209e565b1603610ab3576111726040946111617f290e52799b1ac63207e28c21f7f1f387cf8ea9257dde8e363a02e157d8e4c6589760048b8951926110f884611b6d565b8c84528784018a81528b8501906000825260608601928b845260808701946001865260005260058b528d6000209651166001600160601b0360a01b87541617865551600186015551600285015551600384015551151591019060ff801983541691151516179055565b876000526006835285600020611f3d565b8351928352820152a3005b60405162461bcd60e51b815260206004820152600f60248201526e105b1c9958591e48195e1c1a5c9959608a1b6044820152606490fd5b346101b95760003660031901126101b9576001546040516001600160a01b039091168152602090f35b346101b95760203660031901126101b9576001600160a01b03806111ff611a04565b1690816000526005602052604060002090815416330361124c57600401805460ff19169055337f744157ccffbd293a2e8644928cd7d23d650f869b88f72d7bfea8041b76ca6bec600080a3005b60405162461bcd60e51b815260206004820152600e60248201526d139bdd08185d5d1a1bdc9a5e995960921b6044820152606490fd5b346101b95760003660031901126101b9576112bc7f0000000000000000000000000000000000000000000000000000000000000000611c39565b6112e57f0000000000000000000000000000000000000000000000000000000000000000611d35565b6040516020808201928284106001600160401b0385111761064257918161133e8594611330979660405260008452604051978897600f60f81b895260e0858a015260e0890190611a30565b908782036040890152611a30565b91466060870152306080870152600060a087015285830360c0870152519182815201929160005b82811061137457505050500390f35b835185528695509381019392810192600101611365565b346101b95760203660031901126101b9576001600160a01b036113ac611a04565b1660005260076020526020604060002054604051908152f35b346101b95760203660031901126101b95760a06113e0611a04565b600060806040516113f081611b6d565b8281528260208201528260408201528260608201520152600180831b0380911660005260056020526040600020906040519061142b82611b6d565b8254169182825260018101546020830190815260028201549060408401918252608060ff600460038601549560608801968752015416940193151584526040519485525160208501525160408401525160608301525115156080820152f35b346101b95760003660031901126101b95760206040517f9cdedb650f0c832f0f08ec608cecf63cfb0854c9eb90a48cee2b93f48b11e1b78152f35b346101b95760003660031901126101b9576114de611c0d565b600180546001600160a01b031981169091556000906001600160a01b03167f8be0079c531659141344cd1fd0a4f28419497f9722a3daafe3b4186f6b6457e08280a3005b346101b95760003660031901126101b95760206040517f83c16fb5990216990cb35e4d72b8c900905c38a883e269e3d6879809242bc7eb8152f35b346101b9576020806003193601126101b957606060a060405161157f81611b88565b6000815260008482015260006040820152600083820152600060808201520152600435600052600881526040600020610b7f6005604051926115c084611b88565b60018060a01b03948582541685528560018301541681860190815286600284015491604088019283526003850154936060890194855261162260ff6004880154169660808b01971515885261161b604051809a819301611ad7565b0388611bbe565b60a08901968752604051998a99828b525116908901525116604087015251606086015251608085015251151560a08401525160c08084015260e0830190611a30565b346101b95760003660031901126101b957600b546040516001600160a01b039091168152602090f35b346101b95760203660031901126101b95760206116ab6004356122d6565b604051908152f35b346101b95760003660031901126101b95760206116ab612149565b346101b95760003660031901126101b9576040517f00000000000000000000000000000000000000000000000000000000000000006001600160a01b03168152602090f35b346101b95760203660031901126101b95760043561172f611e7a565b801561080b573360005260046020528060406000205410610aa1573360005260046020526040600020611763828254611e9d565b905561179081337f0000000000000000000000000000000000000000000000000000000000000000611eaa565b6040519081527f7084f5476618d8e60b11ef0d7d3f06914655adb8793e28ff7f018d4c76d505d560203392a26001600055005b346101b95760003660031901126101b9576020600a54604051908152f35b346101b95760603660031901126101b9576117fa611a04565b6001600160a01b038181169160243591906044359061181a851515611efb565b83156119465781151580611939575b15611901576118bb61183e6118ce9342611def565b9360046040519161184e83611b6d565b33835260208301888152604084016000815260608501918983526080860193600185528c600052600560205260406000209651166001600160601b0360a01b87541617865551600186015551600285015551600384015551151591019060ff801983541691151516179055565b3360005260066020526040600020611f3d565b60405191825260208201527f290e52799b1ac63207e28c21f7f1f387cf8ea9257dde8e363a02e157d8e4c65860403392a3005b60405162461bcd60e51b815260206004820152601060248201526f24b73b30b634b210323ab930ba34b7b760811b6044820152606490fd5b5062278d00821115611829565b60405162461bcd60e51b815260206004820152601760248201527f5370656e64206c696d6974206d757374206265203e20300000000000000000006044820152606490fd5b346101b95760203660031901126101b9576004356119a7611c0d565b6103e881116119b557600a55005b60405162461bcd60e51b815260206004820152600c60248201526b08ccaca40e8dede40d0d2ced60a31b6044820152606490fd5b346101b95760003660031901126101b9576020906009548152f35b600435906001600160a01b03821682036101b957565b602435906001600160a01b03821682036101b957565b919082519283825260005b848110611a5c575050826000602080949584010152601f8019910116010190565b602081830181015184830182015201611a3b565b9181601f840112156101b9578235916001600160401b0383116101b957602083818601950101116101b957565b90600182811c92168015611acd575b6020831014611ab757565b634e487b7160e01b600052602260045260246000fd5b91607f1691611aac565b9060009291805491611ae883611a9d565b918282526001938481169081600014611b4a5750600114611b0a575b50505050565b90919394506000526020928360002092846000945b838610611b36575050505001019038808080611b04565b805485870183015294019385908201611b1f565b9294505050602093945060ff191683830152151560051b01019038808080611b04565b60a081019081106001600160401b0382111761064257604052565b60c081019081106001600160401b0382111761064257604052565b604081019081106001600160401b0382111761064257604052565b90601f801991011681019081106001600160401b0382111761064257604052565b8054821015611bf75760005260206000200190600090565b634e487b7160e01b600052603260045260246000fd5b6001546001600160a01b03163303611c2157565b60405163118cdaa760e01b8152336004820152602490fd5b60ff8114611c775760ff811690601f8211611c655760405191611c5b83611ba3565b8252602082015290565b604051632cd44ac360e21b8152600490fd5b50604051600254816000611c8a83611a9d565b80835292600190818116908115611d135750600114611cb4575b50611cb192500382611bbe565b90565b6002600090815291507f405787fa12a823e0f2b7631cc41b3ba8828b3321ca811111fa75cd3aa3bb5ace5b848310611cf85750611cb1935050810160200138611ca4565b81935090816020925483858901015201910190918492611cdf565b905060209250611cb194915060ff191682840152151560051b82010138611ca4565b60ff8114611d575760ff811690601f8211611c655760405191611c5b83611ba3565b50604051600354816000611d6a83611a9d565b80835292600190818116908115611d135750600114611d905750611cb192500382611bbe565b6003600090815291507fc2575a0e9e593c00f959f8c92f12db2869c3395a3b0502d05e2516446f71f85b5b848310611dd45750611cb1935050810160200138611ca4565b81935090816020925483858901015201910190918492611dbb565b91908201809211611dfc57565b634e487b7160e01b600052601160045260246000fd5b906000602091828151910182855af115611e6e576000513d611e6557506001600160a01b0381163b155b611e435750565b604051635274afe760e01b81526001600160a01b039091166004820152602490fd5b60011415611e3c565b6040513d6000823e3d90fd5b600260005414611e8b576002600055565b604051633ee5aeb560e01b8152600490fd5b91908203918211611dfc57565b60405163a9059cbb60e01b60208201526001600160a01b03909216602483015260448083019390935291815260808101916001600160401b0383118284101761064257611ef992604052611e12565b565b15611f0257565b60405162461bcd60e51b8152602060048201526013602482015272496e76616c69642073657373696f6e206b657960681b6044820152606490fd5b80546801000000000000000081101561064257611f5f91600182018155611bdf565b819291549060031b9160018060a01b03809116831b921b1916179055565b6000198114611dfc5760010190565b9291926001600160401b0382116106425760405191611fb5601f8201601f191660200184611bbe565b8294818452818301116101b9578281602093846000960137010152565b815191906041830361200357611ffc92506020820151906060604084015193015160001a9061200e565b9192909190565b505060009160029190565b91907f7fffffffffffffffffffffffffffffff5d576e7357a4501ddfe92f46681b20a0841161209257926020929160ff608095604051948552168484015260408301526060820152600092839182805260015afa156120865780516001600160a01b0381161561207d57918190565b50809160019190565b604051903d90823e3d90fd5b50505060009160039190565b600481101561210d57806120b0575050565b600181036120ca5760405163f645eedf60e01b8152600490fd5b600281036120eb5760405163fce698f760e01b815260048101839052602490fd5b6003146120f55750565b602490604051906335e2f38360e21b82526004820152fd5b634e487b7160e01b600052602160045260246000fd5b60429061212e612149565b906040519161190160f01b8352600283015260228201522090565b307f00000000000000000000000000000000000000000000000000000000000000006001600160a01b0316148061223a575b156121a4577f000000000000000000000000000000000000000000000000000000000000000090565b60405160208101907f8b73c3c69bb8fe3d512ecc4cf759cc79239f7b179b0ffacaa9a75d522b39400f82527f000000000000000000000000000000000000000000000000000000000000000060408201527f000000000000000000000000000000000000000000000000000000000000000060608201524660808201523060a082015260a0815261223481611b88565b51902090565b507f0000000000000000000000000000000000000000000000000000000000000000461461217b565b1561226a57565b60405162461bcd60e51b815260206004820152601060248201526f11195c1bdcda5d081c995c5d5a5c995960821b6044820152606490fd5b908060209392818452848401376000828201840152601f01601f1916010190565b81810292918115918404141715611dfc57565b6000526008602052604060002060ff6004820154161561230d578060026123046003611cb194015442611e9d565b910154906122c3565b5060009056fe26959e18775fbd2eabcc8c8ccbe9e125e15a7b55f9c94b72decfcc74ae65ef59a26469706673582212204a6441e776ed2397512a82d9064a9ac348dd012a30ca8b43fac8d2f75073054064736f6c63430008140033",
  "linkReferences": {},
  "deployedLinkReferences": {}
}